{"contracts/ArrayAndStruct.sol":{"StructTypes":{"abi":[{"inputs":[],"name":"initStudent1","outputs":[],"stateMutability":"nonpayable","type":"function"},{"inputs":[],"name":"initStudent2","outputs":[],"stateMutability":"nonpayable","type":"function"},{"inputs":[],"name":"initStudent3","outputs":[],"stateMutability":"nonpayable","type":"function"},{"inputs":[],"name":"initStudent4","outputs":[],"stateMutability":"nonpayable","type":"function"}],"evm":{"bytecode":{"linkReferences":{},"object":"608060405234801561001057600080fd5b50610133806100206000396000f3fe6080604052348015600f57600080fd5b506004361060465760003560e01c80631a8d7dc314604b5780635a4236b11460535780639ebb8d2014605b578063a8b63e6f146063575b600080fd5b6051606b565b005b60596082565b005b606160b3565b005b606960e4565b005b600160008001819055506050600060010181905550565b604051806040016040528060038152602001605a815250600080820151816000015560208201518160010155905050565b604051806040016040528060048152602001603c815250600080820151816000015560208201518160010155905050565b6000600b8160000181905550606481600101819055505056fea2646970667358221220fda86225c169b3cf798b81231ff3740702a17e1cfe03f1201c741690f024ef3e64736f6c63430008130033","opcodes":"PUSH1 0x80 PUSH1 0x40 MSTORE CALLVALUE DUP1 ISZERO PUSH2 0x10 JUMPI PUSH1 0x0 DUP1 REVERT JUMPDEST POP PUSH2 0x133 DUP1 PUSH2 0x20 PUSH1 0x0 CODECOPY PUSH1 0x0 RETURN INVALID PUSH1 0x80 PUSH1 0x40 MSTORE CALLVALUE DUP1 ISZERO PUSH1 0xF JUMPI PUSH1 0x0 DUP1 REVERT JUMPDEST POP PUSH1 0x4 CALLDATASIZE LT PUSH1 0x46 JUMPI PUSH1 0x0 CALLDATALOAD PUSH1 0xE0 SHR DUP1 PUSH4 0x1A8D7DC3 EQ PUSH1 0x4B JUMPI DUP1 PUSH4 0x5A4236B1 EQ PUSH1 0x53 JUMPI DUP1 PUSH4 0x9EBB8D20 EQ PUSH1 0x5B JUMPI DUP1 PUSH4 0xA8B63E6F EQ PUSH1 0x63 JUMPI JUMPDEST PUSH1 0x0 DUP1 REVERT JUMPDEST PUSH1 0x51 PUSH1 0x6B JUMP JUMPDEST STOP JUMPDEST PUSH1 0x59 PUSH1 0x82 JUMP JUMPDEST STOP JUMPDEST PUSH1 0x61 PUSH1 0xB3 JUMP JUMPDEST STOP JUMPDEST PUSH1 0x69 PUSH1 0xE4 JUMP JUMPDEST STOP JUMPDEST PUSH1 0x1 PUSH1 0x0 DUP1 ADD DUP2 SWAP1 SSTORE POP PUSH1 0x50 PUSH1 0x0 PUSH1 0x1 ADD DUP2 SWAP1 SSTORE POP JUMP JUMPDEST PUSH1 0x40 MLOAD DUP1 PUSH1 0x40 ADD PUSH1 0x40 MSTORE DUP1 PUSH1 0x3 DUP2 MSTORE PUSH1 0x20 ADD PUSH1 0x5A DUP2 MSTORE POP PUSH1 0x0 DUP1 DUP3 ADD MLOAD DUP2 PUSH1 0x0 ADD SSTORE PUSH1 0x20 DUP3 ADD MLOAD DUP2 PUSH1 0x1 ADD SSTORE SWAP1 POP POP JUMP JUMPDEST PUSH1 0x40 MLOAD DUP1 PUSH1 0x40 ADD PUSH1 0x40 MSTORE DUP1 PUSH1 0x4 DUP2 MSTORE PUSH1 0x20 ADD PUSH1 0x3C DUP2 MSTORE POP PUSH1 0x0 DUP1 DUP3 ADD MLOAD DUP2 PUSH1 0x0 ADD SSTORE PUSH1 0x20 DUP3 ADD MLOAD DUP2 PUSH1 0x1 ADD SSTORE SWAP1 POP POP JUMP JUMPDEST PUSH1 0x0 PUSH1 0xB DUP2 PUSH1 0x0 ADD DUP2 SWAP1 SSTORE POP PUSH1 0x64 DUP2 PUSH1 0x1 ADD DUP2 SWAP1 SSTORE POP POP JUMP INVALID LOG2 PUSH5 0x6970667358 0x22 SLT KECCAK256 REVERT 0xA8 PUSH3 0x25C169 0xB3 0xCF PUSH26 0x8B81231FF3740702A17E1CFE03F1201C741690F024EF3E64736F PUSH13 0x63430008130033000000000000 "},"methodIdentifiers":{"initStudent1()":"a8b63e6f","initStudent2()":"1a8d7dc3","initStudent3()":"5a4236b1","initStudent4()":"9ebb8d20"}}}}}