{"contracts/FunctionTypes.sol":{"FunctionTypes":{"abi":[{"inputs":[],"stateMutability":"payable","type":"constructor"},{"inputs":[],"name":"add","outputs":[],"stateMutability":"nonpayable","type":"function"},{"inputs":[{"internalType":"uint256","name":"_number","type":"uint256"}],"name":"addPure","outputs":[{"internalType":"uint256","name":"new_number","type":"uint256"}],"stateMutability":"pure","type":"function"},{"inputs":[],"name":"addView","outputs":[{"internalType":"uint256","name":"new_number","type":"uint256"}],"stateMutability":"view","type":"function"},{"inputs":[],"name":"minusCall","outputs":[],"stateMutability":"nonpayable","type":"function"},{"inputs":[],"name":"minusPayable","outputs":[{"internalType":"uint256","name":"balance","type":"uint256"}],"stateMutability":"payable","type":"function"},{"inputs":[],"name":"number","outputs":[{"internalType":"uint256","name":"","type":"uint256"}],"stateMutability":"view","type":"function"}],"evm":{"bytecode":{"linkReferences":{},"object":"6080604052600560005561030a806100186000396000f3fe6080604052600436106100555760003560e01c8063303810a61461005a5780634f2be91f146100785780637032c4f21461008f57806380b4ea08146100cc5780638381f58a146100e3578063b262eb7f1461010e575b600080fd5b610062610139565b60405161006f91906101c4565b60405180910390f35b34801561008457600080fd5b5061008d610149565b005b34801561009b57600080fd5b506100b660048036038101906100b19190610210565b610164565b6040516100c391906101c4565b60405180910390f35b3480156100d857600080fd5b506100e161016e565b005b3480156100ef57600080fd5b506100f8610178565b60405161010591906101c4565b60405180910390f35b34801561011a57600080fd5b5061012361017e565b60405161013091906101c4565b60405180910390f35b6000610143610194565b47905090565b600160008082825461015b919061026c565b92505081905550565b6000819050919050565b610176610194565b565b60005481565b6000600160005461018f919061026c565b905090565b60016000546101a391906102a0565b600081905550565b6000819050919050565b6101be816101ab565b82525050565b60006020820190506101d960008301846101b5565b92915050565b600080fd5b6101ed816101ab565b81146101f857600080fd5b50565b60008135905061020a816101e4565b92915050565b600060208284031215610226576102256101df565b5b6000610234848285016101fb565b91505092915050565b7f4e487b7100000000000000000000000000000000000000000000000000000000600052601160045260246000fd5b6000610277826101ab565b9150610282836101ab565b925082820190508082111561029a5761029961023d565b5b92915050565b60006102ab826101ab565b91506102b6836101ab565b92508282039050818111156102ce576102cd61023d565b5b9291505056fea2646970667358221220cec2280d6ca12a6c08dd7d1b405e9be168513b5140b8126ebb6323e559e23db964736f6c63430008130033","opcodes":"PUSH1 0x80 PUSH1 0x40 MSTORE PUSH1 0x5 PUSH1 0x0 SSTORE PUSH2 0x30A DUP1 PUSH2 0x18 PUSH1 0x0 CODECOPY PUSH1 0x0 RETURN INVALID PUSH1 0x80 PUSH1 0x40 MSTORE PUSH1 0x4 CALLDATASIZE LT PUSH2 0x55 JUMPI PUSH1 0x0 CALLDATALOAD PUSH1 0xE0 SHR DUP1 PUSH4 0x303810A6 EQ PUSH2 0x5A JUMPI DUP1 PUSH4 0x4F2BE91F EQ PUSH2 0x78 JUMPI DUP1 PUSH4 0x7032C4F2 EQ PUSH2 0x8F JUMPI DUP1 PUSH4 0x80B4EA08 EQ PUSH2 0xCC JUMPI DUP1 PUSH4 0x8381F58A EQ PUSH2 0xE3 JUMPI DUP1 PUSH4 0xB262EB7F EQ PUSH2 0x10E JUMPI JUMPDEST PUSH1 0x0 DUP1 REVERT JUMPDEST PUSH2 0x62 PUSH2 0x139 JUMP JUMPDEST PUSH1 0x40 MLOAD PUSH2 0x6F SWAP2 SWAP1 PUSH2 0x1C4 JUMP JUMPDEST PUSH1 0x40 MLOAD DUP1 SWAP2 SUB SWAP1 RETURN JUMPDEST CALLVALUE DUP1 ISZERO PUSH2 0x84 JUMPI PUSH1 0x0 DUP1 REVERT JUMPDEST POP PUSH2 0x8D PUSH2 0x149 JUMP JUMPDEST STOP JUMPDEST CALLVALUE DUP1 ISZERO PUSH2 0x9B JUMPI PUSH1 0x0 DUP1 REVERT JUMPDEST POP PUSH2 0xB6 PUSH1 0x4 DUP1 CALLDATASIZE SUB DUP2 ADD SWAP1 PUSH2 0xB1 SWAP2 SWAP1 PUSH2 0x210 JUMP JUMPDEST PUSH2 0x164 JUMP JUMPDEST PUSH1 0x40 MLOAD PUSH2 0xC3 SWAP2 SWAP1 PUSH2 0x1C4 JUMP JUMPDEST PUSH1 0x40 MLOAD DUP1 SWAP2 SUB SWAP1 RETURN JUMPDEST CALLVALUE DUP1 ISZERO PUSH2 0xD8 JUMPI PUSH1 0x0 DUP1 REVERT JUMPDEST POP PUSH2 0xE1 PUSH2 0x16E JUMP JUMPDEST STOP JUMPDEST CALLVALUE DUP1 ISZERO PUSH2 0xEF JUMPI PUSH1 0x0 DUP1 REVERT JUMPDEST POP PUSH2 0xF8 PUSH2 0x178 JUMP JUMPDEST PUSH1 0x40 MLOAD PUSH2 0x105 SWAP2 SWAP1 PUSH2 0x1C4 JUMP JUMPDEST PUSH1 0x40 MLOAD DUP1 SWAP2 SUB SWAP1 RETURN JUMPDEST CALLVALUE DUP1 ISZERO PUSH2 0x11A JUMPI PUSH1 0x0 DUP1 REVERT JUMPDEST POP PUSH2 0x123 PUSH2 0x17E JUMP JUMPDEST PUSH1 0x40 MLOAD PUSH2 0x130 SWAP2 SWAP1 PUSH2 0x1C4 JUMP JUMPDEST PUSH1 0x40 MLOAD DUP1 SWAP2 SUB SWAP1 RETURN JUMPDEST PUSH1 0x0 PUSH2 0x143 PUSH2 0x194 JUMP JUMPDEST SELFBALANCE SWAP1 POP SWAP1 JUMP JUMPDEST PUSH1 0x1 PUSH1 0x0 DUP1 DUP3 DUP3 SLOAD PUSH2 0x15B SWAP2 SWAP1 PUSH2 0x26C JUMP JUMPDEST SWAP3 POP POP DUP2 SWAP1 SSTORE POP JUMP JUMPDEST PUSH1 0x0 DUP2 SWAP1 POP SWAP2 SWAP1 POP JUMP JUMPDEST PUSH2 0x176 PUSH2 0x194 JUMP JUMPDEST JUMP JUMPDEST PUSH1 0x0 SLOAD DUP2 JUMP JUMPDEST PUSH1 0x0 PUSH1 0x1 PUSH1 0x0 SLOAD PUSH2 0x18F SWAP2 SWAP1 PUSH2 0x26C JUMP JUMPDEST SWAP1 POP SWAP1 JUMP JUMPDEST PUSH1 0x1 PUSH1 0x0 SLOAD PUSH2 0x1A3 SWAP2 SWAP1 PUSH2 0x2A0 JUMP JUMPDEST PUSH1 0x0 DUP2 SWAP1 SSTORE POP JUMP JUMPDEST PUSH1 0x0 DUP2 SWAP1 POP SWAP2 SWAP1 POP JUMP JUMPDEST PUSH2 0x1BE DUP2 PUSH2 0x1AB JUMP JUMPDEST DUP3 MSTORE POP POP JUMP JUMPDEST PUSH1 0x0 PUSH1 0x20 DUP3 ADD SWAP1 POP PUSH2 0x1D9 PUSH1 0x0 DUP4 ADD DUP5 PUSH2 0x1B5 JUMP JUMPDEST SWAP3 SWAP2 POP POP JUMP JUMPDEST PUSH1 0x0 DUP1 REVERT JUMPDEST PUSH2 0x1ED DUP2 PUSH2 0x1AB JUMP JUMPDEST DUP2 EQ PUSH2 0x1F8 JUMPI PUSH1 0x0 DUP1 REVERT JUMPDEST POP JUMP JUMPDEST PUSH1 0x0 DUP2 CALLDATALOAD SWAP1 POP PUSH2 0x20A DUP2 PUSH2 0x1E4 JUMP JUMPDEST SWAP3 SWAP2 POP POP JUMP JUMPDEST PUSH1 0x0 PUSH1 0x20 DUP3 DUP5 SUB SLT ISZERO PUSH2 0x226 JUMPI PUSH2 0x225 PUSH2 0x1DF JUMP JUMPDEST JUMPDEST PUSH1 0x0 PUSH2 0x234 DUP5 DUP3 DUP6 ADD PUSH2 0x1FB JUMP JUMPDEST SWAP2 POP POP SWAP3 SWAP2 POP POP JUMP JUMPDEST PUSH32 0x4E487B7100000000000000000000000000000000000000000000000000000000 PUSH1 0x0 MSTORE PUSH1 0x11 PUSH1 0x4 MSTORE PUSH1 0x24 PUSH1 0x0 REVERT JUMPDEST PUSH1 0x0 PUSH2 0x277 DUP3 PUSH2 0x1AB JUMP JUMPDEST SWAP2 POP PUSH2 0x282 DUP4 PUSH2 0x1AB JUMP JUMPDEST SWAP3 POP DUP3 DUP3 ADD SWAP1 POP DUP1 DUP3 GT ISZERO PUSH2 0x29A JUMPI PUSH2 0x299 PUSH2 0x23D JUMP JUMPDEST JUMPDEST SWAP3 SWAP2 POP POP JUMP JUMPDEST PUSH1 0x0 PUSH2 0x2AB DUP3 PUSH2 0x1AB JUMP JUMPDEST SWAP2 POP PUSH2 0x2B6 DUP4 PUSH2 0x1AB JUMP JUMPDEST SWAP3 POP DUP3 DUP3 SUB SWAP1 POP DUP2 DUP2 GT ISZERO PUSH2 0x2CE JUMPI PUSH2 0x2CD PUSH2 0x23D JUMP JUMPDEST JUMPDEST SWAP3 SWAP2 POP POP JUMP INVALID LOG2 PUSH5 0x6970667358 0x22 SLT KECCAK256 0xCE 0xC2 0x28 0xD PUSH13 0xA12A6C08DD7D1B405E9BE16851 EXTCODESIZE MLOAD BLOCKHASH 0xB8 SLT PUSH15 0xBB6323E559E23DB964736F6C634300 ADDMOD SGT STOP CALLER "},"methodIdentifiers":{"add()":"4f2be91f","addPure(uint256)":"7032c4f2","addView()":"b262eb7f","minusCall()":"80b4ea08","minusPayable()":"303810a6","number()":"8381f58a"}}}}}