{"contracts/Inheritance/ModifierInheritance.sol":{"Identifier":{"abi":[{"inputs":[{"internalType":"uint256","name":"_a","type":"uint256"}],"name":"getExactDividedBy2And3","outputs":[{"internalType":"uint256","name":"","type":"uint256"},{"internalType":"uint256","name":"","type":"uint256"}],"stateMutability":"pure","type":"function"},{"inputs":[{"internalType":"uint256","name":"_dividend","type":"uint256"}],"name":"getExactDividedBy2And3WithoutModifier","outputs":[{"internalType":"uint256","name":"","type":"uint256"},{"internalType":"uint256","name":"","type":"uint256"}],"stateMutability":"pure","type":"function"}],"evm":{"bytecode":{"linkReferences":{},"object":"608060405234801561001057600080fd5b50610357806100206000396000f3fe608060405234801561001057600080fd5b50600436106100365760003560e01c80634534a4381461003b578063d2406c781461006c575b600080fd5b61005560048036038101906100509190610188565b61009d565b6040516100639291906101c4565b60405180910390f35b61008660048036038101906100819190610188565b61011b565b6040516100949291906101c4565b60405180910390f35b6000808260006002826100b0919061021c565b1480156100c9575060006003826100c7919061021c565b145b610108576040517f08c379a00000000000000000000000000000000000000000000000000000000081526004016100ff906102d0565b60405180910390fd5b6101118461011b565b9250925050915091565b600080600060028461012d91906102f0565b9050600060038561013e91906102f0565b90508181935093505050915091565b600080fd5b6000819050919050565b61016581610152565b811461017057600080fd5b50565b6000813590506101828161015c565b92915050565b60006020828403121561019e5761019d61014d565b5b60006101ac84828501610173565b91505092915050565b6101be81610152565b82525050565b60006040820190506101d960008301856101b5565b6101e660208301846101b5565b9392505050565b7f4e487b7100000000000000000000000000000000000000000000000000000000600052601260045260246000fd5b600061022782610152565b915061023283610152565b925082610242576102416101ed565b5b828206905092915050565b600082825260208201905092915050565b7f42617365313a206e6f742065786163742064697669646564206279203220616e60008201527f6420330000000000000000000000000000000000000000000000000000000000602082015250565b60006102ba60238361024d565b91506102c58261025e565b604082019050919050565b600060208201905081810360008301526102e9816102ad565b9050919050565b60006102fb82610152565b915061030683610152565b925082610316576103156101ed565b5b82820490509291505056fea2646970667358221220198cbaf9a9afa219426b52fbaaf278f170c995a4e33b1659e645c569844d332864736f6c63430008130033","opcodes":"PUSH1 0x80 PUSH1 0x40 MSTORE CALLVALUE DUP1 ISZERO PUSH2 0x10 JUMPI PUSH1 0x0 DUP1 REVERT JUMPDEST POP PUSH2 0x357 DUP1 PUSH2 0x20 PUSH1 0x0 CODECOPY PUSH1 0x0 RETURN INVALID PUSH1 0x80 PUSH1 0x40 MSTORE CALLVALUE DUP1 ISZERO PUSH2 0x10 JUMPI PUSH1 0x0 DUP1 REVERT JUMPDEST POP PUSH1 0x4 CALLDATASIZE LT PUSH2 0x36 JUMPI PUSH1 0x0 CALLDATALOAD PUSH1 0xE0 SHR DUP1 PUSH4 0x4534A438 EQ PUSH2 0x3B JUMPI DUP1 PUSH4 0xD2406C78 EQ PUSH2 0x6C JUMPI JUMPDEST PUSH1 0x0 DUP1 REVERT JUMPDEST PUSH2 0x55 PUSH1 0x4 DUP1 CALLDATASIZE SUB DUP2 ADD SWAP1 PUSH2 0x50 SWAP2 SWAP1 PUSH2 0x188 JUMP JUMPDEST PUSH2 0x9D JUMP JUMPDEST PUSH1 0x40 MLOAD PUSH2 0x63 SWAP3 SWAP2 SWAP1 PUSH2 0x1C4 JUMP JUMPDEST PUSH1 0x40 MLOAD DUP1 SWAP2 SUB SWAP1 RETURN JUMPDEST PUSH2 0x86 PUSH1 0x4 DUP1 CALLDATASIZE SUB DUP2 ADD SWAP1 PUSH2 0x81 SWAP2 SWAP1 PUSH2 0x188 JUMP JUMPDEST PUSH2 0x11B JUMP JUMPDEST PUSH1 0x40 MLOAD PUSH2 0x94 SWAP3 SWAP2 SWAP1 PUSH2 0x1C4 JUMP JUMPDEST PUSH1 0x40 MLOAD DUP1 SWAP2 SUB SWAP1 RETURN JUMPDEST PUSH1 0x0 DUP1 DUP3 PUSH1 0x0 PUSH1 0x2 DUP3 PUSH2 0xB0 SWAP2 SWAP1 PUSH2 0x21C JUMP JUMPDEST EQ DUP1 ISZERO PUSH2 0xC9 JUMPI POP PUSH1 0x0 PUSH1 0x3 DUP3 PUSH2 0xC7 SWAP2 SWAP1 PUSH2 0x21C JUMP JUMPDEST EQ JUMPDEST PUSH2 0x108 JUMPI PUSH1 0x40 MLOAD PUSH32 0x8C379A000000000000000000000000000000000000000000000000000000000 DUP2 MSTORE PUSH1 0x4 ADD PUSH2 0xFF SWAP1 PUSH2 0x2D0 JUMP JUMPDEST PUSH1 0x40 MLOAD DUP1 SWAP2 SUB SWAP1 REVERT JUMPDEST PUSH2 0x111 DUP5 PUSH2 0x11B JUMP JUMPDEST SWAP3 POP SWAP3 POP POP SWAP2 POP SWAP2 JUMP JUMPDEST PUSH1 0x0 DUP1 PUSH1 0x0 PUSH1 0x2 DUP5 PUSH2 0x12D SWAP2 SWAP1 PUSH2 0x2F0 JUMP JUMPDEST SWAP1 POP PUSH1 0x0 PUSH1 0x3 DUP6 PUSH2 0x13E SWAP2 SWAP1 PUSH2 0x2F0 JUMP JUMPDEST SWAP1 POP DUP2 DUP2 SWAP4 POP SWAP4 POP POP POP SWAP2 POP SWAP2 JUMP JUMPDEST PUSH1 0x0 DUP1 REVERT JUMPDEST PUSH1 0x0 DUP2 SWAP1 POP SWAP2 SWAP1 POP JUMP JUMPDEST PUSH2 0x165 DUP2 PUSH2 0x152 JUMP JUMPDEST DUP2 EQ PUSH2 0x170 JUMPI PUSH1 0x0 DUP1 REVERT JUMPDEST POP JUMP JUMPDEST PUSH1 0x0 DUP2 CALLDATALOAD SWAP1 POP PUSH2 0x182 DUP2 PUSH2 0x15C JUMP JUMPDEST SWAP3 SWAP2 POP POP JUMP JUMPDEST PUSH1 0x0 PUSH1 0x20 DUP3 DUP5 SUB SLT ISZERO PUSH2 0x19E JUMPI PUSH2 0x19D PUSH2 0x14D JUMP JUMPDEST JUMPDEST PUSH1 0x0 PUSH2 0x1AC DUP5 DUP3 DUP6 ADD PUSH2 0x173 JUMP JUMPDEST SWAP2 POP POP SWAP3 SWAP2 POP POP JUMP JUMPDEST PUSH2 0x1BE DUP2 PUSH2 0x152 JUMP JUMPDEST DUP3 MSTORE POP POP JUMP JUMPDEST PUSH1 0x0 PUSH1 0x40 DUP3 ADD SWAP1 POP PUSH2 0x1D9 PUSH1 0x0 DUP4 ADD DUP6 PUSH2 0x1B5 JUMP JUMPDEST PUSH2 0x1E6 PUSH1 0x20 DUP4 ADD DUP5 PUSH2 0x1B5 JUMP JUMPDEST SWAP4 SWAP3 POP POP POP JUMP JUMPDEST PUSH32 0x4E487B7100000000000000000000000000000000000000000000000000000000 PUSH1 0x0 MSTORE PUSH1 0x12 PUSH1 0x4 MSTORE PUSH1 0x24 PUSH1 0x0 REVERT JUMPDEST PUSH1 0x0 PUSH2 0x227 DUP3 PUSH2 0x152 JUMP JUMPDEST SWAP2 POP PUSH2 0x232 DUP4 PUSH2 0x152 JUMP JUMPDEST SWAP3 POP DUP3 PUSH2 0x242 JUMPI PUSH2 0x241 PUSH2 0x1ED JUMP JUMPDEST JUMPDEST DUP3 DUP3 MOD SWAP1 POP SWAP3 SWAP2 POP POP JUMP JUMPDEST PUSH1 0x0 DUP3 DUP3 MSTORE PUSH1 0x20 DUP3 ADD SWAP1 POP SWAP3 SWAP2 POP POP JUMP JUMPDEST PUSH32 0x42617365313A206E6F742065786163742064697669646564206279203220616E PUSH1 0x0 DUP3 ADD MSTORE PUSH32 0x6420330000000000000000000000000000000000000000000000000000000000 PUSH1 0x20 DUP3 ADD MSTORE POP JUMP JUMPDEST PUSH1 0x0 PUSH2 0x2BA PUSH1 0x23 DUP4 PUSH2 0x24D JUMP JUMPDEST SWAP2 POP PUSH2 0x2C5 DUP3 PUSH2 0x25E JUMP JUMPDEST PUSH1 0x40 DUP3 ADD SWAP1 POP SWAP2 SWAP1 POP JUMP JUMPDEST PUSH1 0x0 PUSH1 0x20 DUP3 ADD SWAP1 POP DUP2 DUP2 SUB PUSH1 0x0 DUP4 ADD MSTORE PUSH2 0x2E9 DUP2 PUSH2 0x2AD JUMP JUMPDEST SWAP1 POP SWAP2 SWAP1 POP JUMP JUMPDEST PUSH1 0x0 PUSH2 0x2FB DUP3 PUSH2 0x152 JUMP JUMPDEST SWAP2 POP PUSH2 0x306 DUP4 PUSH2 0x152 JUMP JUMPDEST SWAP3 POP DUP3 PUSH2 0x316 JUMPI PUSH2 0x315 PUSH2 0x1ED JUMP JUMPDEST JUMPDEST DUP3 DUP3 DIV SWAP1 POP SWAP3 SWAP2 POP POP JUMP INVALID LOG2 PUSH5 0x6970667358 0x22 SLT KECCAK256 NOT DUP13 0xBA 0xF9 0xA9 0xAF LOG2 NOT TIMESTAMP PUSH12 0x52FBAAF278F170C995A4E33B AND MSIZE 0xE6 GASLIMIT 0xC5 PUSH10 0x844D332864736F6C6343 STOP ADDMOD SGT STOP CALLER "},"methodIdentifiers":{"getExactDividedBy2And3(uint256)":"4534a438","getExactDividedBy2And3WithoutModifier(uint256)":"d2406c78"}}}}}