{"contracts/Inheritance/Inheritance.sol":{"Yeye":{"abi":[{"anonymous":false,"inputs":[{"indexed":false,"internalType":"string","name":"msg","type":"string"}],"name":"Log","type":"event"},{"inputs":[],"name":"hip","outputs":[],"stateMutability":"nonpayable","type":"function"},{"inputs":[],"name":"pop","outputs":[],"stateMutability":"nonpayable","type":"function"},{"inputs":[],"name":"yeye","outputs":[],"stateMutability":"nonpayable","type":"function"}],"evm":{"bytecode":{"linkReferences":{},"object":"608060405234801561001057600080fd5b50610294806100206000396000f3fe608060405234801561001057600080fd5b50600436106100415760003560e01c80630ca21e9c14610046578063370ea14214610050578063a4ece52c1461005a575b600080fd5b61004e610064565b005b61005861009b565b005b6100626100d2565b005b7fcf34ef537ac33ee1ac626ca1587a0a7e8e51561e5514f8cb36afa1c5102b3bab60405161009190610166565b60405180910390a1565b7fcf34ef537ac33ee1ac626ca1587a0a7e8e51561e5514f8cb36afa1c5102b3bab6040516100c8906101d2565b60405180910390a1565b7fcf34ef537ac33ee1ac626ca1587a0a7e8e51561e5514f8cb36afa1c5102b3bab6040516100ff9061023e565b60405180910390a1565b600082825260208201905092915050565b7f5965796520796579650000000000000000000000000000000000000000000000600082015250565b6000610150600983610109565b915061015b8261011a565b602082019050919050565b6000602082019050818103600083015261017f81610143565b9050919050565b7f5965796520686970000000000000000000000000000000000000000000000000600082015250565b60006101bc600883610109565b91506101c782610186565b602082019050919050565b600060208201905081810360008301526101eb816101af565b9050919050565b7f5965796520706f70000000000000000000000000000000000000000000000000600082015250565b6000610228600883610109565b9150610233826101f2565b602082019050919050565b600060208201905081810360008301526102578161021b565b905091905056fea2646970667358221220f1d98517808cc57292e33a8d4516e02adfc9592ac474b2ddd2ef064693c81c5264736f6c63430008130033","opcodes":"PUSH1 0x80 PUSH1 0x40 MSTORE CALLVALUE DUP1 ISZERO PUSH2 0x10 JUMPI PUSH1 0x0 DUP1 REVERT JUMPDEST POP PUSH2 0x294 DUP1 PUSH2 0x20 PUSH1 0x0 CODECOPY PUSH1 0x0 RETURN INVALID PUSH1 0x80 PUSH1 0x40 MSTORE CALLVALUE DUP1 ISZERO PUSH2 0x10 JUMPI PUSH1 0x0 DUP1 REVERT JUMPDEST POP PUSH1 0x4 CALLDATASIZE LT PUSH2 0x41 JUMPI PUSH1 0x0 CALLDATALOAD PUSH1 0xE0 SHR DUP1 PUSH4 0xCA21E9C EQ PUSH2 0x46 JUMPI DUP1 PUSH4 0x370EA142 EQ PUSH2 0x50 JUMPI DUP1 PUSH4 0xA4ECE52C EQ PUSH2 0x5A JUMPI JUMPDEST PUSH1 0x0 DUP1 REVERT JUMPDEST PUSH2 0x4E PUSH2 0x64 JUMP JUMPDEST STOP JUMPDEST PUSH2 0x58 PUSH2 0x9B JUMP JUMPDEST STOP JUMPDEST PUSH2 0x62 PUSH2 0xD2 JUMP JUMPDEST STOP JUMPDEST PUSH32 0xCF34EF537AC33EE1AC626CA1587A0A7E8E51561E5514F8CB36AFA1C5102B3BAB PUSH1 0x40 MLOAD PUSH2 0x91 SWAP1 PUSH2 0x166 JUMP JUMPDEST PUSH1 0x40 MLOAD DUP1 SWAP2 SUB SWAP1 LOG1 JUMP JUMPDEST PUSH32 0xCF34EF537AC33EE1AC626CA1587A0A7E8E51561E5514F8CB36AFA1C5102B3BAB PUSH1 0x40 MLOAD PUSH2 0xC8 SWAP1 PUSH2 0x1D2 JUMP JUMPDEST PUSH1 0x40 MLOAD DUP1 SWAP2 SUB SWAP1 LOG1 JUMP JUMPDEST PUSH32 0xCF34EF537AC33EE1AC626CA1587A0A7E8E51561E5514F8CB36AFA1C5102B3BAB PUSH1 0x40 MLOAD PUSH2 0xFF SWAP1 PUSH2 0x23E JUMP JUMPDEST PUSH1 0x40 MLOAD DUP1 SWAP2 SUB SWAP1 LOG1 JUMP JUMPDEST PUSH1 0x0 DUP3 DUP3 MSTORE PUSH1 0x20 DUP3 ADD SWAP1 POP SWAP3 SWAP2 POP POP JUMP JUMPDEST PUSH32 0x5965796520796579650000000000000000000000000000000000000000000000 PUSH1 0x0 DUP3 ADD MSTORE POP JUMP JUMPDEST PUSH1 0x0 PUSH2 0x150 PUSH1 0x9 DUP4 PUSH2 0x109 JUMP JUMPDEST SWAP2 POP PUSH2 0x15B DUP3 PUSH2 0x11A JUMP JUMPDEST PUSH1 0x20 DUP3 ADD SWAP1 POP SWAP2 SWAP1 POP JUMP JUMPDEST PUSH1 0x0 PUSH1 0x20 DUP3 ADD SWAP1 POP DUP2 DUP2 SUB PUSH1 0x0 DUP4 ADD MSTORE PUSH2 0x17F DUP2 PUSH2 0x143 JUMP JUMPDEST SWAP1 POP SWAP2 SWAP1 POP JUMP JUMPDEST PUSH32 0x5965796520686970000000000000000000000000000000000000000000000000 PUSH1 0x0 DUP3 ADD MSTORE POP JUMP JUMPDEST PUSH1 0x0 PUSH2 0x1BC PUSH1 0x8 DUP4 PUSH2 0x109 JUMP JUMPDEST SWAP2 POP PUSH2 0x1C7 DUP3 PUSH2 0x186 JUMP JUMPDEST PUSH1 0x20 DUP3 ADD SWAP1 POP SWAP2 SWAP1 POP JUMP JUMPDEST PUSH1 0x0 PUSH1 0x20 DUP3 ADD SWAP1 POP DUP2 DUP2 SUB PUSH1 0x0 DUP4 ADD MSTORE PUSH2 0x1EB DUP2 PUSH2 0x1AF JUMP JUMPDEST SWAP1 POP SWAP2 SWAP1 POP JUMP JUMPDEST PUSH32 0x5965796520706F70000000000000000000000000000000000000000000000000 PUSH1 0x0 DUP3 ADD MSTORE POP JUMP JUMPDEST PUSH1 0x0 PUSH2 0x228 PUSH1 0x8 DUP4 PUSH2 0x109 JUMP JUMPDEST SWAP2 POP PUSH2 0x233 DUP3 PUSH2 0x1F2 JUMP JUMPDEST PUSH1 0x20 DUP3 ADD SWAP1 POP SWAP2 SWAP1 POP JUMP JUMPDEST PUSH1 0x0 PUSH1 0x20 DUP3 ADD SWAP1 POP DUP2 DUP2 SUB PUSH1 0x0 DUP4 ADD MSTORE PUSH2 0x257 DUP2 PUSH2 0x21B JUMP JUMPDEST SWAP1 POP SWAP2 SWAP1 POP JUMP INVALID LOG2 PUSH5 0x6970667358 0x22 SLT KECCAK256 CALL 0xD9 DUP6 OR DUP1 DUP13 0xC5 PUSH19 0x92E33A8D4516E02ADFC9592AC474B2DDD2EF06 CHAINID SWAP4 0xC8 SHR MSTORE PUSH5 0x736F6C6343 STOP ADDMOD SGT STOP CALLER "},"methodIdentifiers":{"hip()":"370ea142","pop()":"a4ece52c","yeye()":"0ca21e9c"}}}}}