{"contracts/Inheritance/Inheritance.sol":{"Baba":{"abi":[{"anonymous":false,"inputs":[{"indexed":false,"internalType":"string","name":"msg","type":"string"}],"name":"Log","type":"event"},{"inputs":[],"name":"baba","outputs":[],"stateMutability":"nonpayable","type":"function"},{"inputs":[],"name":"hip","outputs":[],"stateMutability":"nonpayable","type":"function"},{"inputs":[],"name":"pop","outputs":[],"stateMutability":"nonpayable","type":"function"},{"inputs":[],"name":"yeye","outputs":[],"stateMutability":"nonpayable","type":"function"}],"evm":{"bytecode":{"linkReferences":{},"object":"608060405234801561001057600080fd5b5061034c806100206000396000f3fe608060405234801561001057600080fd5b506004361061004c5760003560e01c80630ca21e9c14610051578063370ea1421461005b578063a4ece52c14610065578063fa030ef11461006f575b600080fd5b610059610079565b005b6100636100b0565b005b61006d6100e7565b005b61007761011e565b005b7fcf34ef537ac33ee1ac626ca1587a0a7e8e51561e5514f8cb36afa1c5102b3bab6040516100a6906101b2565b60405180910390a1565b7fcf34ef537ac33ee1ac626ca1587a0a7e8e51561e5514f8cb36afa1c5102b3bab6040516100dd9061021e565b60405180910390a1565b7fcf34ef537ac33ee1ac626ca1587a0a7e8e51561e5514f8cb36afa1c5102b3bab6040516101149061028a565b60405180910390a1565b7fcf34ef537ac33ee1ac626ca1587a0a7e8e51561e5514f8cb36afa1c5102b3bab60405161014b906102f6565b60405180910390a1565b600082825260208201905092915050565b7f5965796520796579650000000000000000000000000000000000000000000000600082015250565b600061019c600983610155565b91506101a782610166565b602082019050919050565b600060208201905081810360008301526101cb8161018f565b9050919050565b7f4261626120686970000000000000000000000000000000000000000000000000600082015250565b6000610208600883610155565b9150610213826101d2565b602082019050919050565b60006020820190508181036000830152610237816101fb565b9050919050565b7f4261626120706f70000000000000000000000000000000000000000000000000600082015250565b6000610274600883610155565b915061027f8261023e565b602082019050919050565b600060208201905081810360008301526102a381610267565b9050919050565b7f4261626120626162610000000000000000000000000000000000000000000000600082015250565b60006102e0600983610155565b91506102eb826102aa565b602082019050919050565b6000602082019050818103600083015261030f816102d3565b905091905056fea2646970667358221220a8314092969326c643642ae8a352d020f1cf093be1a66ee057e96a9d85070f5464736f6c63430008130033","opcodes":"PUSH1 0x80 PUSH1 0x40 MSTORE CALLVALUE DUP1 ISZERO PUSH2 0x10 JUMPI PUSH1 0x0 DUP1 REVERT JUMPDEST POP PUSH2 0x34C DUP1 PUSH2 0x20 PUSH1 0x0 CODECOPY PUSH1 0x0 RETURN INVALID PUSH1 0x80 PUSH1 0x40 MSTORE CALLVALUE DUP1 ISZERO PUSH2 0x10 JUMPI PUSH1 0x0 DUP1 REVERT JUMPDEST POP PUSH1 0x4 CALLDATASIZE LT PUSH2 0x4C JUMPI PUSH1 0x0 CALLDATALOAD PUSH1 0xE0 SHR DUP1 PUSH4 0xCA21E9C EQ PUSH2 0x51 JUMPI DUP1 PUSH4 0x370EA142 EQ PUSH2 0x5B JUMPI DUP1 PUSH4 0xA4ECE52C EQ PUSH2 0x65 JUMPI DUP1 PUSH4 0xFA030EF1 EQ PUSH2 0x6F JUMPI JUMPDEST PUSH1 0x0 DUP1 REVERT JUMPDEST PUSH2 0x59 PUSH2 0x79 JUMP JUMPDEST STOP JUMPDEST PUSH2 0x63 PUSH2 0xB0 JUMP JUMPDEST STOP JUMPDEST PUSH2 0x6D PUSH2 0xE7 JUMP JUMPDEST STOP JUMPDEST PUSH2 0x77 PUSH2 0x11E JUMP JUMPDEST STOP JUMPDEST PUSH32 0xCF34EF537AC33EE1AC626CA1587A0A7E8E51561E5514F8CB36AFA1C5102B3BAB PUSH1 0x40 MLOAD PUSH2 0xA6 SWAP1 PUSH2 0x1B2 JUMP JUMPDEST PUSH1 0x40 MLOAD DUP1 SWAP2 SUB SWAP1 LOG1 JUMP JUMPDEST PUSH32 0xCF34EF537AC33EE1AC626CA1587A0A7E8E51561E5514F8CB36AFA1C5102B3BAB PUSH1 0x40 MLOAD PUSH2 0xDD SWAP1 PUSH2 0x21E JUMP JUMPDEST PUSH1 0x40 MLOAD DUP1 SWAP2 SUB SWAP1 LOG1 JUMP JUMPDEST PUSH32 0xCF34EF537AC33EE1AC626CA1587A0A7E8E51561E5514F8CB36AFA1C5102B3BAB PUSH1 0x40 MLOAD PUSH2 0x114 SWAP1 PUSH2 0x28A JUMP JUMPDEST PUSH1 0x40 MLOAD DUP1 SWAP2 SUB SWAP1 LOG1 JUMP JUMPDEST PUSH32 0xCF34EF537AC33EE1AC626CA1587A0A7E8E51561E5514F8CB36AFA1C5102B3BAB PUSH1 0x40 MLOAD PUSH2 0x14B SWAP1 PUSH2 0x2F6 JUMP JUMPDEST PUSH1 0x40 MLOAD DUP1 SWAP2 SUB SWAP1 LOG1 JUMP JUMPDEST PUSH1 0x0 DUP3 DUP3 MSTORE PUSH1 0x20 DUP3 ADD SWAP1 POP SWAP3 SWAP2 POP POP JUMP JUMPDEST PUSH32 0x5965796520796579650000000000000000000000000000000000000000000000 PUSH1 0x0 DUP3 ADD MSTORE POP JUMP JUMPDEST PUSH1 0x0 PUSH2 0x19C PUSH1 0x9 DUP4 PUSH2 0x155 JUMP JUMPDEST SWAP2 POP PUSH2 0x1A7 DUP3 PUSH2 0x166 JUMP JUMPDEST PUSH1 0x20 DUP3 ADD SWAP1 POP SWAP2 SWAP1 POP JUMP JUMPDEST PUSH1 0x0 PUSH1 0x20 DUP3 ADD SWAP1 POP DUP2 DUP2 SUB PUSH1 0x0 DUP4 ADD MSTORE PUSH2 0x1CB DUP2 PUSH2 0x18F JUMP JUMPDEST SWAP1 POP SWAP2 SWAP1 POP JUMP JUMPDEST PUSH32 0x4261626120686970000000000000000000000000000000000000000000000000 PUSH1 0x0 DUP3 ADD MSTORE POP JUMP JUMPDEST PUSH1 0x0 PUSH2 0x208 PUSH1 0x8 DUP4 PUSH2 0x155 JUMP JUMPDEST SWAP2 POP PUSH2 0x213 DUP3 PUSH2 0x1D2 JUMP JUMPDEST PUSH1 0x20 DUP3 ADD SWAP1 POP SWAP2 SWAP1 POP JUMP JUMPDEST PUSH1 0x0 PUSH1 0x20 DUP3 ADD SWAP1 POP DUP2 DUP2 SUB PUSH1 0x0 DUP4 ADD MSTORE PUSH2 0x237 DUP2 PUSH2 0x1FB JUMP JUMPDEST SWAP1 POP SWAP2 SWAP1 POP JUMP JUMPDEST PUSH32 0x4261626120706F70000000000000000000000000000000000000000000000000 PUSH1 0x0 DUP3 ADD MSTORE POP JUMP JUMPDEST PUSH1 0x0 PUSH2 0x274 PUSH1 0x8 DUP4 PUSH2 0x155 JUMP JUMPDEST SWAP2 POP PUSH2 0x27F DUP3 PUSH2 0x23E JUMP JUMPDEST PUSH1 0x20 DUP3 ADD SWAP1 POP SWAP2 SWAP1 POP JUMP JUMPDEST PUSH1 0x0 PUSH1 0x20 DUP3 ADD SWAP1 POP DUP2 DUP2 SUB PUSH1 0x0 DUP4 ADD MSTORE PUSH2 0x2A3 DUP2 PUSH2 0x267 JUMP JUMPDEST SWAP1 POP SWAP2 SWAP1 POP JUMP JUMPDEST PUSH32 0x4261626120626162610000000000000000000000000000000000000000000000 PUSH1 0x0 DUP3 ADD MSTORE POP JUMP JUMPDEST PUSH1 0x0 PUSH2 0x2E0 PUSH1 0x9 DUP4 PUSH2 0x155 JUMP JUMPDEST SWAP2 POP PUSH2 0x2EB DUP3 PUSH2 0x2AA JUMP JUMPDEST PUSH1 0x20 DUP3 ADD SWAP1 POP SWAP2 SWAP1 POP JUMP JUMPDEST PUSH1 0x0 PUSH1 0x20 DUP3 ADD SWAP1 POP DUP2 DUP2 SUB PUSH1 0x0 DUP4 ADD MSTORE PUSH2 0x30F DUP2 PUSH2 0x2D3 JUMP JUMPDEST SWAP1 POP SWAP2 SWAP1 POP JUMP INVALID LOG2 PUSH5 0x6970667358 0x22 SLT KECCAK256 0xA8 BALANCE BLOCKHASH SWAP3 SWAP7 SWAP4 0x26 0xC6 NUMBER PUSH5 0x2AE8A352D0 KECCAK256 CALL 0xCF MULMOD EXTCODESIZE 0xE1 0xA6 PUSH15 0xE057E96A9D85070F5464736F6C6343 STOP ADDMOD SGT STOP CALLER "},"methodIdentifiers":{"baba()":"fa030ef1","hip()":"370ea142","pop()":"a4ece52c","yeye()":"0ca21e9c"}}}}}