{"contracts/Inheritance/Inheritance.sol":{"Erzi":{"abi":[{"anonymous":false,"inputs":[{"indexed":false,"internalType":"string","name":"msg","type":"string"}],"name":"Log","type":"event"},{"inputs":[],"name":"baba","outputs":[],"stateMutability":"nonpayable","type":"function"},{"inputs":[],"name":"callParent","outputs":[],"stateMutability":"nonpayable","type":"function"},{"inputs":[],"name":"callParentSuper","outputs":[],"stateMutability":"nonpayable","type":"function"},{"inputs":[],"name":"hip","outputs":[],"stateMutability":"nonpayable","type":"function"},{"inputs":[],"name":"pop","outputs":[],"stateMutability":"nonpayable","type":"function"},{"inputs":[],"name":"yeye","outputs":[],"stateMutability":"nonpayable","type":"function"}],"evm":{"bytecode":{"linkReferences":{},"object":"608060405234801561001057600080fd5b506104d0806100206000396000f3fe608060405234801561001057600080fd5b50600436106100625760003560e01c80630ca21e9c14610067578063370ea14214610071578063572e47ae1461007b578063a4ece52c14610085578063b92a50e01461008f578063fa030ef114610099575b600080fd5b61006f6100a3565b005b6100796100da565b005b610083610111565b005b61008d61011b565b005b610097610152565b005b6100a161015c565b005b7fcf34ef537ac33ee1ac626ca1587a0a7e8e51561e5514f8cb36afa1c5102b3bab6040516100d09061025e565b60405180910390a1565b7fcf34ef537ac33ee1ac626ca1587a0a7e8e51561e5514f8cb36afa1c5102b3bab604051610107906102ca565b60405180910390a1565b610119610193565b565b7fcf34ef537ac33ee1ac626ca1587a0a7e8e51561e5514f8cb36afa1c5102b3bab60405161014890610336565b60405180910390a1565b61015a6101ca565b565b7fcf34ef537ac33ee1ac626ca1587a0a7e8e51561e5514f8cb36afa1c5102b3bab604051610189906103a2565b60405180910390a1565b7fcf34ef537ac33ee1ac626ca1587a0a7e8e51561e5514f8cb36afa1c5102b3bab6040516101c09061040e565b60405180910390a1565b7fcf34ef537ac33ee1ac626ca1587a0a7e8e51561e5514f8cb36afa1c5102b3bab6040516101f79061047a565b60405180910390a1565b600082825260208201905092915050565b7f5965796520796579650000000000000000000000000000000000000000000000600082015250565b6000610248600983610201565b915061025382610212565b602082019050919050565b600060208201905081810360008301526102778161023b565b9050919050565b7f45727a6920686970000000000000000000000000000000000000000000000000600082015250565b60006102b4600883610201565b91506102bf8261027e565b602082019050919050565b600060208201905081810360008301526102e3816102a7565b9050919050565b7f45727a6920706f70000000000000000000000000000000000000000000000000600082015250565b6000610320600883610201565b915061032b826102ea565b602082019050919050565b6000602082019050818103600083015261034f81610313565b9050919050565b7f4261626120626162610000000000000000000000000000000000000000000000600082015250565b600061038c600983610201565b915061039782610356565b602082019050919050565b600060208201905081810360008301526103bb8161037f565b9050919050565b7f5965796520706f70000000000000000000000000000000000000000000000000600082015250565b60006103f8600883610201565b9150610403826103c2565b602082019050919050565b60006020820190508181036000830152610427816103eb565b9050919050565b7f4261626120706f70000000000000000000000000000000000000000000000000600082015250565b6000610464600883610201565b915061046f8261042e565b602082019050919050565b6000602082019050818103600083015261049381610457565b905091905056fea2646970667358221220d4dd665d6a72bd53a62804fc45ea94ae34c437c4885ed1656a5c61a8acb1536464736f6c63430008130033","opcodes":"PUSH1 0x80 PUSH1 0x40 MSTORE CALLVALUE DUP1 ISZERO PUSH2 0x10 JUMPI PUSH1 0x0 DUP1 REVERT JUMPDEST POP PUSH2 0x4D0 DUP1 PUSH2 0x20 PUSH1 0x0 CODECOPY PUSH1 0x0 RETURN INVALID PUSH1 0x80 PUSH1 0x40 MSTORE CALLVALUE DUP1 ISZERO PUSH2 0x10 JUMPI PUSH1 0x0 DUP1 REVERT JUMPDEST POP PUSH1 0x4 CALLDATASIZE LT PUSH2 0x62 JUMPI PUSH1 0x0 CALLDATALOAD PUSH1 0xE0 SHR DUP1 PUSH4 0xCA21E9C EQ PUSH2 0x67 JUMPI DUP1 PUSH4 0x370EA142 EQ PUSH2 0x71 JUMPI DUP1 PUSH4 0x572E47AE EQ PUSH2 0x7B JUMPI DUP1 PUSH4 0xA4ECE52C EQ PUSH2 0x85 JUMPI DUP1 PUSH4 0xB92A50E0 EQ PUSH2 0x8F JUMPI DUP1 PUSH4 0xFA030EF1 EQ PUSH2 0x99 JUMPI JUMPDEST PUSH1 0x0 DUP1 REVERT JUMPDEST PUSH2 0x6F PUSH2 0xA3 JUMP JUMPDEST STOP JUMPDEST PUSH2 0x79 PUSH2 0xDA JUMP JUMPDEST STOP JUMPDEST PUSH2 0x83 PUSH2 0x111 JUMP JUMPDEST STOP JUMPDEST PUSH2 0x8D PUSH2 0x11B JUMP JUMPDEST STOP JUMPDEST PUSH2 0x97 PUSH2 0x152 JUMP JUMPDEST STOP JUMPDEST PUSH2 0xA1 PUSH2 0x15C JUMP JUMPDEST STOP JUMPDEST PUSH32 0xCF34EF537AC33EE1AC626CA1587A0A7E8E51561E5514F8CB36AFA1C5102B3BAB PUSH1 0x40 MLOAD PUSH2 0xD0 SWAP1 PUSH2 0x25E JUMP JUMPDEST PUSH1 0x40 MLOAD DUP1 SWAP2 SUB SWAP1 LOG1 JUMP JUMPDEST PUSH32 0xCF34EF537AC33EE1AC626CA1587A0A7E8E51561E5514F8CB36AFA1C5102B3BAB PUSH1 0x40 MLOAD PUSH2 0x107 SWAP1 PUSH2 0x2CA JUMP JUMPDEST PUSH1 0x40 MLOAD DUP1 SWAP2 SUB SWAP1 LOG1 JUMP JUMPDEST PUSH2 0x119 PUSH2 0x193 JUMP JUMPDEST JUMP JUMPDEST PUSH32 0xCF34EF537AC33EE1AC626CA1587A0A7E8E51561E5514F8CB36AFA1C5102B3BAB PUSH1 0x40 MLOAD PUSH2 0x148 SWAP1 PUSH2 0x336 JUMP JUMPDEST PUSH1 0x40 MLOAD DUP1 SWAP2 SUB SWAP1 LOG1 JUMP JUMPDEST PUSH2 0x15A PUSH2 0x1CA JUMP JUMPDEST JUMP JUMPDEST PUSH32 0xCF34EF537AC33EE1AC626CA1587A0A7E8E51561E5514F8CB36AFA1C5102B3BAB PUSH1 0x40 MLOAD PUSH2 0x189 SWAP1 PUSH2 0x3A2 JUMP JUMPDEST PUSH1 0x40 MLOAD DUP1 SWAP2 SUB SWAP1 LOG1 JUMP JUMPDEST PUSH32 0xCF34EF537AC33EE1AC626CA1587A0A7E8E51561E5514F8CB36AFA1C5102B3BAB PUSH1 0x40 MLOAD PUSH2 0x1C0 SWAP1 PUSH2 0x40E JUMP JUMPDEST PUSH1 0x40 MLOAD DUP1 SWAP2 SUB SWAP1 LOG1 JUMP JUMPDEST PUSH32 0xCF34EF537AC33EE1AC626CA1587A0A7E8E51561E5514F8CB36AFA1C5102B3BAB PUSH1 0x40 MLOAD PUSH2 0x1F7 SWAP1 PUSH2 0x47A JUMP JUMPDEST PUSH1 0x40 MLOAD DUP1 SWAP2 SUB SWAP1 LOG1 JUMP JUMPDEST PUSH1 0x0 DUP3 DUP3 MSTORE PUSH1 0x20 DUP3 ADD SWAP1 POP SWAP3 SWAP2 POP POP JUMP JUMPDEST PUSH32 0x5965796520796579650000000000000000000000000000000000000000000000 PUSH1 0x0 DUP3 ADD MSTORE POP JUMP JUMPDEST PUSH1 0x0 PUSH2 0x248 PUSH1 0x9 DUP4 PUSH2 0x201 JUMP JUMPDEST SWAP2 POP PUSH2 0x253 DUP3 PUSH2 0x212 JUMP JUMPDEST PUSH1 0x20 DUP3 ADD SWAP1 POP SWAP2 SWAP1 POP JUMP JUMPDEST PUSH1 0x0 PUSH1 0x20 DUP3 ADD SWAP1 POP DUP2 DUP2 SUB PUSH1 0x0 DUP4 ADD MSTORE PUSH2 0x277 DUP2 PUSH2 0x23B JUMP JUMPDEST SWAP1 POP SWAP2 SWAP1 POP JUMP JUMPDEST PUSH32 0x45727A6920686970000000000000000000000000000000000000000000000000 PUSH1 0x0 DUP3 ADD MSTORE POP JUMP JUMPDEST PUSH1 0x0 PUSH2 0x2B4 PUSH1 0x8 DUP4 PUSH2 0x201 JUMP JUMPDEST SWAP2 POP PUSH2 0x2BF DUP3 PUSH2 0x27E JUMP JUMPDEST PUSH1 0x20 DUP3 ADD SWAP1 POP SWAP2 SWAP1 POP JUMP JUMPDEST PUSH1 0x0 PUSH1 0x20 DUP3 ADD SWAP1 POP DUP2 DUP2 SUB PUSH1 0x0 DUP4 ADD MSTORE PUSH2 0x2E3 DUP2 PUSH2 0x2A7 JUMP JUMPDEST SWAP1 POP SWAP2 SWAP1 POP JUMP JUMPDEST PUSH32 0x45727A6920706F70000000000000000000000000000000000000000000000000 PUSH1 0x0 DUP3 ADD MSTORE POP JUMP JUMPDEST PUSH1 0x0 PUSH2 0x320 PUSH1 0x8 DUP4 PUSH2 0x201 JUMP JUMPDEST SWAP2 POP PUSH2 0x32B DUP3 PUSH2 0x2EA JUMP JUMPDEST PUSH1 0x20 DUP3 ADD SWAP1 POP SWAP2 SWAP1 POP JUMP JUMPDEST PUSH1 0x0 PUSH1 0x20 DUP3 ADD SWAP1 POP DUP2 DUP2 SUB PUSH1 0x0 DUP4 ADD MSTORE PUSH2 0x34F DUP2 PUSH2 0x313 JUMP JUMPDEST SWAP1 POP SWAP2 SWAP1 POP JUMP JUMPDEST PUSH32 0x4261626120626162610000000000000000000000000000000000000000000000 PUSH1 0x0 DUP3 ADD MSTORE POP JUMP JUMPDEST PUSH1 0x0 PUSH2 0x38C PUSH1 0x9 DUP4 PUSH2 0x201 JUMP JUMPDEST SWAP2 POP PUSH2 0x397 DUP3 PUSH2 0x356 JUMP JUMPDEST PUSH1 0x20 DUP3 ADD SWAP1 POP SWAP2 SWAP1 POP JUMP JUMPDEST PUSH1 0x0 PUSH1 0x20 DUP3 ADD SWAP1 POP DUP2 DUP2 SUB PUSH1 0x0 DUP4 ADD MSTORE PUSH2 0x3BB DUP2 PUSH2 0x37F JUMP JUMPDEST SWAP1 POP SWAP2 SWAP1 POP JUMP JUMPDEST PUSH32 0x5965796520706F70000000000000000000000000000000000000000000000000 PUSH1 0x0 DUP3 ADD MSTORE POP JUMP JUMPDEST PUSH1 0x0 PUSH2 0x3F8 PUSH1 0x8 DUP4 PUSH2 0x201 JUMP JUMPDEST SWAP2 POP PUSH2 0x403 DUP3 PUSH2 0x3C2 JUMP JUMPDEST PUSH1 0x20 DUP3 ADD SWAP1 POP SWAP2 SWAP1 POP JUMP JUMPDEST PUSH1 0x0 PUSH1 0x20 DUP3 ADD SWAP1 POP DUP2 DUP2 SUB PUSH1 0x0 DUP4 ADD MSTORE PUSH2 0x427 DUP2 PUSH2 0x3EB JUMP JUMPDEST SWAP1 POP SWAP2 SWAP1 POP JUMP JUMPDEST PUSH32 0x4261626120706F70000000000000000000000000000000000000000000000000 PUSH1 0x0 DUP3 ADD MSTORE POP JUMP JUMPDEST PUSH1 0x0 PUSH2 0x464 PUSH1 0x8 DUP4 PUSH2 0x201 JUMP JUMPDEST SWAP2 POP PUSH2 0x46F DUP3 PUSH2 0x42E JUMP JUMPDEST PUSH1 0x20 DUP3 ADD SWAP1 POP SWAP2 SWAP1 POP JUMP JUMPDEST PUSH1 0x0 PUSH1 0x20 DUP3 ADD SWAP1 POP DUP2 DUP2 SUB PUSH1 0x0 DUP4 ADD MSTORE PUSH2 0x493 DUP2 PUSH2 0x457 JUMP JUMPDEST SWAP1 POP SWAP2 SWAP1 POP JUMP INVALID LOG2 PUSH5 0x6970667358 0x22 SLT KECCAK256 0xD4 0xDD PUSH7 0x5D6A72BD53A628 DIV 0xFC GASLIMIT 0xEA SWAP5 0xAE CALLVALUE 0xC4 CALLDATACOPY 0xC4 DUP9 0x5E 0xD1 PUSH6 0x6A5C61A8ACB1 MSTORE8 PUSH5 0x64736F6C63 NUMBER STOP ADDMOD SGT STOP CALLER "},"methodIdentifiers":{"baba()":"fa030ef1","callParent()":"572e47ae","callParentSuper()":"b92a50e0","hip()":"370ea142","pop()":"a4ece52c","yeye()":"0ca21e9c"}}}}}