{"contracts/Counter.sol":{"Counter":{"abi":[{"anonymous":false,"inputs":[{"indexed":false,"internalType":"uint256","name":"newCount","type":"uint256"}],"name":"CountChanged","type":"event"},{"inputs":[],"name":"current","outputs":[{"internalType":"uint256","name":"","type":"uint256"}],"stateMutability":"view","type":"function"},{"inputs":[],"name":"decrement","outputs":[],"stateMutability":"nonpayable","type":"function"},{"inputs":[],"name":"increment","outputs":[],"stateMutability":"nonpayable","type":"function"}],"evm":{"bytecode":{"linkReferences":{},"object":"608060405234801561001057600080fd5b50610311806100206000396000f3fe608060405234801561001057600080fd5b50600436106100415760003560e01c80632baeceb7146100465780639fa6a6e314610050578063d09de08a1461006e575b600080fd5b61004e610078565b005b610058610110565b6040516100659190610186565b60405180910390f35b610076610119565b005b60008054116100bc576040517f08c379a00000000000000000000000000000000000000000000000000000000081526004016100b390610224565b60405180910390fd5b60016000808282546100ce9190610273565b925050819055507f0ef4482aceb854636f33f9cd319f9e1cd6fe3aa2e60523f3583c287b893824456000546040516101069190610186565b60405180910390a1565b60008054905090565b600160008082825461012b91906102a7565b925050819055507f0ef4482aceb854636f33f9cd319f9e1cd6fe3aa2e60523f3583c287b893824456000546040516101639190610186565b60405180910390a1565b6000819050919050565b6101808161016d565b82525050565b600060208201905061019b6000830184610177565b92915050565b600082825260208201905092915050565b7f436f756e7465723a2063616e6e6f742064656372656d656e742062656c6f772060008201527f7a65726f00000000000000000000000000000000000000000000000000000000602082015250565b600061020e6024836101a1565b9150610219826101b2565b604082019050919050565b6000602082019050818103600083015261023d81610201565b9050919050565b7f4e487b7100000000000000000000000000000000000000000000000000000000600052601160045260246000fd5b600061027e8261016d565b91506102898361016d565b92508282039050818111156102a1576102a0610244565b5b92915050565b60006102b28261016d565b91506102bd8361016d565b92508282019050808211156102d5576102d4610244565b5b9291505056fea26469706673582212203208a73a15dd5418b3f0bfff454a6b89265c58d13bc1fce2f8d5deccaf4930a864736f6c63430008130033","opcodes":"PUSH1 0x80 PUSH1 0x40 MSTORE CALLVALUE DUP1 ISZERO PUSH2 0x10 JUMPI PUSH1 0x0 DUP1 REVERT JUMPDEST POP PUSH2 0x311 DUP1 PUSH2 0x20 PUSH1 0x0 CODECOPY PUSH1 0x0 RETURN INVALID PUSH1 0x80 PUSH1 0x40 MSTORE CALLVALUE DUP1 ISZERO PUSH2 0x10 JUMPI PUSH1 0x0 DUP1 REVERT JUMPDEST POP PUSH1 0x4 CALLDATASIZE LT PUSH2 0x41 JUMPI PUSH1 0x0 CALLDATALOAD PUSH1 0xE0 SHR DUP1 PUSH4 0x2BAECEB7 EQ PUSH2 0x46 JUMPI DUP1 PUSH4 0x9FA6A6E3 EQ PUSH2 0x50 JUMPI DUP1 PUSH4 0xD09DE08A EQ PUSH2 0x6E JUMPI JUMPDEST PUSH1 0x0 DUP1 REVERT JUMPDEST PUSH2 0x4E PUSH2 0x78 JUMP JUMPDEST STOP JUMPDEST PUSH2 0x58 PUSH2 0x110 JUMP JUMPDEST PUSH1 0x40 MLOAD PUSH2 0x65 SWAP2 SWAP1 PUSH2 0x186 JUMP JUMPDEST PUSH1 0x40 MLOAD DUP1 SWAP2 SUB SWAP1 RETURN JUMPDEST PUSH2 0x76 PUSH2 0x119 JUMP JUMPDEST STOP JUMPDEST PUSH1 0x0 DUP1 SLOAD GT PUSH2 0xBC JUMPI PUSH1 0x40 MLOAD PUSH32 0x8C379A000000000000000000000000000000000000000000000000000000000 DUP2 MSTORE PUSH1 0x4 ADD PUSH2 0xB3 SWAP1 PUSH2 0x224 JUMP JUMPDEST PUSH1 0x40 MLOAD DUP1 SWAP2 SUB SWAP1 REVERT JUMPDEST PUSH1 0x1 PUSH1 0x0 DUP1 DUP3 DUP3 SLOAD PUSH2 0xCE SWAP2 SWAP1 PUSH2 0x273 JUMP JUMPDEST SWAP3 POP POP DUP2 SWAP1 SSTORE POP PUSH32 0xEF4482ACEB854636F33F9CD319F9E1CD6FE3AA2E60523F3583C287B89382445 PUSH1 0x0 SLOAD PUSH1 0x40 MLOAD PUSH2 0x106 SWAP2 SWAP1 PUSH2 0x186 JUMP JUMPDEST PUSH1 0x40 MLOAD DUP1 SWAP2 SUB SWAP1 LOG1 JUMP JUMPDEST PUSH1 0x0 DUP1 SLOAD SWAP1 POP SWAP1 JUMP JUMPDEST PUSH1 0x1 PUSH1 0x0 DUP1 DUP3 DUP3 SLOAD PUSH2 0x12B SWAP2 SWAP1 PUSH2 0x2A7 JUMP JUMPDEST SWAP3 POP POP DUP2 SWAP1 SSTORE POP PUSH32 0xEF4482ACEB854636F33F9CD319F9E1CD6FE3AA2E60523F3583C287B89382445 PUSH1 0x0 SLOAD PUSH1 0x40 MLOAD PUSH2 0x163 SWAP2 SWAP1 PUSH2 0x186 JUMP JUMPDEST PUSH1 0x40 MLOAD DUP1 SWAP2 SUB SWAP1 LOG1 JUMP JUMPDEST PUSH1 0x0 DUP2 SWAP1 POP SWAP2 SWAP1 POP JUMP JUMPDEST PUSH2 0x180 DUP2 PUSH2 0x16D JUMP JUMPDEST DUP3 MSTORE POP POP JUMP JUMPDEST PUSH1 0x0 PUSH1 0x20 DUP3 ADD SWAP1 POP PUSH2 0x19B PUSH1 0x0 DUP4 ADD DUP5 PUSH2 0x177 JUMP JUMPDEST SWAP3 SWAP2 POP POP JUMP JUMPDEST PUSH1 0x0 DUP3 DUP3 MSTORE PUSH1 0x20 DUP3 ADD SWAP1 POP SWAP3 SWAP2 POP POP JUMP JUMPDEST PUSH32 0x436F756E7465723A2063616E6E6F742064656372656D656E742062656C6F7720 PUSH1 0x0 DUP3 ADD MSTORE PUSH32 0x7A65726F00000000000000000000000000000000000000000000000000000000 PUSH1 0x20 DUP3 ADD MSTORE POP JUMP JUMPDEST PUSH1 0x0 PUSH2 0x20E PUSH1 0x24 DUP4 PUSH2 0x1A1 JUMP JUMPDEST SWAP2 POP PUSH2 0x219 DUP3 PUSH2 0x1B2 JUMP JUMPDEST PUSH1 0x40 DUP3 ADD SWAP1 POP SWAP2 SWAP1 POP JUMP JUMPDEST PUSH1 0x0 PUSH1 0x20 DUP3 ADD SWAP1 POP DUP2 DUP2 SUB PUSH1 0x0 DUP4 ADD MSTORE PUSH2 0x23D DUP2 PUSH2 0x201 JUMP JUMPDEST SWAP1 POP SWAP2 SWAP1 POP JUMP JUMPDEST PUSH32 0x4E487B7100000000000000000000000000000000000000000000000000000000 PUSH1 0x0 MSTORE PUSH1 0x11 PUSH1 0x4 MSTORE PUSH1 0x24 PUSH1 0x0 REVERT JUMPDEST PUSH1 0x0 PUSH2 0x27E DUP3 PUSH2 0x16D JUMP JUMPDEST SWAP2 POP PUSH2 0x289 DUP4 PUSH2 0x16D JUMP JUMPDEST SWAP3 POP DUP3 DUP3 SUB SWAP1 POP DUP2 DUP2 GT ISZERO PUSH2 0x2A1 JUMPI PUSH2 0x2A0 PUSH2 0x244 JUMP JUMPDEST JUMPDEST SWAP3 SWAP2 POP POP JUMP JUMPDEST PUSH1 0x0 PUSH2 0x2B2 DUP3 PUSH2 0x16D JUMP JUMPDEST SWAP2 POP PUSH2 0x2BD DUP4 PUSH2 0x16D JUMP JUMPDEST SWAP3 POP DUP3 DUP3 ADD SWAP1 POP DUP1 DUP3 GT ISZERO PUSH2 0x2D5 JUMPI PUSH2 0x2D4 PUSH2 0x244 JUMP JUMPDEST JUMPDEST SWAP3 SWAP2 POP POP JUMP INVALID LOG2 PUSH5 0x6970667358 0x22 SLT KECCAK256 ORIGIN ADDMOD 0xA7 GASPRICE ISZERO 0xDD SLOAD XOR 0xB3 CREATE 0xBF SELFDESTRUCT GASLIMIT 0x4A PUSH12 0x89265C58D13BC1FCE2F8D5DE 0xCC 0xAF 0x49 ADDRESS 0xA8 PUSH5 0x736F6C6343 STOP ADDMOD SGT STOP CALLER "},"methodIdentifiers":{"current()":"9fa6a6e3","decrement()":"2baeceb7","increment()":"d09de08a"}}}}}