{
  "_format": "hh-sol-artifact-1",
  "contractName": "Call",
  "sourceName": "contracts/Call.sol",
  "abi": [
    {
      "anonymous": false,
      "inputs": [
        {
          "indexed": false,
          "internalType": "bool",
          "name": "success",
          "type": "bool"
        },
        {
          "indexed": false,
          "internalType": "bytes",
          "name": "data",
          "type": "bytes"
        }
      ],
      "name": "Response",
      "type": "event"
    },
    {
      "inputs": [
        {
          "internalType": "address",
          "name": "_addr",
          "type": "address"
        }
      ],
      "name": "callGetX",
      "outputs": [
        {
          "internalType": "uint256",
          "name": "",
          "type": "uint256"
        }
      ],
      "stateMutability": "nonpayable",
      "type": "function"
    },
    {
      "inputs": [
        {
          "internalType": "address",
          "name": "_addr",
          "type": "address"
        }
      ],
      "name": "callNonExist",
      "outputs": [],
      "stateMutability": "nonpayable",
      "type": "function"
    },
    {
      "inputs": [
        {
          "internalType": "address payable",
          "name": "_addr",
          "type": "address"
        },
        {
          "internalType": "uint256",
          "name": "x",
          "type": "uint256"
        }
      ],
      "name": "callSetX",
      "outputs": [],
      "stateMutability": "payable",
      "type": "function"
    }
  ],
  "bytecode": "0x608060405234801561001057600080fd5b50610783806100206000396000f3fe6080604052600436106100345760003560e01c80630c49c74b146100395780633ca065bb1461006257806366563e691461007e575b600080fd5b34801561004557600080fd5b50610060600480360381019061005b91906104d2565b6100bb565b005b61007c60048036038101906100779190610573565b6101ea565b005b34801561008a57600080fd5b506100a560048036038101906100a091906104d2565b610326565b6040516100b291906105c2565b60405180910390f35b6000808273ffffffffffffffffffffffffffffffffffffffff166040516024016040516020818303038152906040527f2fbebd38000000000000000000000000000000000000000000000000000000007bffffffffffffffffffffffffffffffffffffffffffffffffffffffff19166020820180517bffffffffffffffffffffffffffffffffffffffffffffffffffffffff8381831617835250505050604051610165919061064e565b6000604051808303816000865af19150503d80600081146101a2576040519150601f19603f3d011682016040523d82523d6000602084013e6101a7565b606091505b50915091507f13848c3e38f8886f3f5d2ad9dff80d8092c2bbb8efd5b887a99c2c6cfc09ac2a82826040516101dd9291906106db565b60405180910390a1505050565b6000808373ffffffffffffffffffffffffffffffffffffffff16348460405160240161021691906105c2565b6040516020818303038152906040527f4018d9aa000000000000000000000000000000000000000000000000000000007bffffffffffffffffffffffffffffffffffffffffffffffffffffffff19166020820180517bffffffffffffffffffffffffffffffffffffffffffffffffffffffff83818316178352505050506040516102a0919061064e565b60006040518083038185875af1925050503d80600081146102dd576040519150601f19603f3d011682016040523d82523d6000602084013e6102e2565b606091505b50915091507f13848c3e38f8886f3f5d2ad9dff80d8092c2bbb8efd5b887a99c2c6cfc09ac2a82826040516103189291906106db565b60405180910390a150505050565b60008060008373ffffffffffffffffffffffffffffffffffffffff166040516024016040516020818303038152906040527f5197c7aa000000000000000000000000000000000000000000000000000000007bffffffffffffffffffffffffffffffffffffffffffffffffffffffff19166020820180517bffffffffffffffffffffffffffffffffffffffffffffffffffffffff83818316178352505050506040516103d2919061064e565b6000604051808303816000865af19150503d806000811461040f576040519150601f19603f3d011682016040523d82523d6000602084013e610414565b606091505b50915091507f13848c3e38f8886f3f5d2ad9dff80d8092c2bbb8efd5b887a99c2c6cfc09ac2a828260405161044a9291906106db565b60405180910390a1808060200190518101906104669190610720565b92505050919050565b600080fd5b600073ffffffffffffffffffffffffffffffffffffffff82169050919050565b600061049f82610474565b9050919050565b6104af81610494565b81146104ba57600080fd5b50565b6000813590506104cc816104a6565b92915050565b6000602082840312156104e8576104e761046f565b5b60006104f6848285016104bd565b91505092915050565b600061050a82610474565b9050919050565b61051a816104ff565b811461052557600080fd5b50565b60008135905061053781610511565b92915050565b6000819050919050565b6105508161053d565b811461055b57600080fd5b50565b60008135905061056d81610547565b92915050565b6000806040838503121561058a5761058961046f565b5b600061059885828601610528565b92505060206105a98582860161055e565b9150509250929050565b6105bc8161053d565b82525050565b60006020820190506105d760008301846105b3565b92915050565b600081519050919050565b600081905092915050565b60005b838110156106115780820151818401526020810190506105f6565b60008484015250505050565b6000610628826105dd565b61063281856105e8565b93506106428185602086016105f3565b80840191505092915050565b600061065a828461061d565b915081905092915050565b60008115159050919050565b61067a81610665565b82525050565b600082825260208201905092915050565b6000601f19601f8301169050919050565b60006106ad826105dd565b6106b78185610680565b93506106c78185602086016105f3565b6106d081610691565b840191505092915050565b60006040820190506106f06000830185610671565b818103602083015261070281846106a2565b90509392505050565b60008151905061071a81610547565b92915050565b6000602082840312156107365761073561046f565b5b60006107448482850161070b565b9150509291505056fea2646970667358221220dea80fc813a3ef1ce9d83db5573df6d8aef7e8ecff2636d99416a5491515d84064736f6c63430008130033",
  "linkReferences": {},
  "deployedLinkReferences": {}
}