{
  "_format": "hh-sol-artifact-1",
  "contractName": "OtherContract",
  "sourceName": "contracts/Call.sol",
  "abi": [
    {
      "anonymous": false,
      "inputs": [
        {
          "indexed": false,
          "internalType": "uint256",
          "name": "amount",
          "type": "uint256"
        },
        {
          "indexed": false,
          "internalType": "uint256",
          "name": "gas",
          "type": "uint256"
        }
      ],
      "name": "Log",
      "type": "event"
    },
    {
      "stateMutability": "payable",
      "type": "fallback"
    },
    {
      "inputs": [],
      "name": "getBalance",
      "outputs": [
        {
          "internalType": "uint256",
          "name": "",
          "type": "uint256"
        }
      ],
      "stateMutability": "view",
      "type": "function"
    },
    {
      "inputs": [],
      "name": "getX",
      "outputs": [
        {
          "internalType": "uint256",
          "name": "x",
          "type": "uint256"
        }
      ],
      "stateMutability": "view",
      "type": "function"
    },
    {
      "inputs": [
        {
          "internalType": "uint256",
          "name": "x",
          "type": "uint256"
        }
      ],
      "name": "setX",
      "outputs": [],
      "stateMutability": "payable",
      "type": "function"
    },
    {
      "stateMutability": "payable",
      "type": "receive"
    }
  ],
  "bytecode": "0x60806040526000805534801561001457600080fd5b5061023b806100246000396000f3fe6080604052600436106100385760003560e01c806312065fe01461007a5780634018d9aa146100a55780635197c7aa146100c157610078565b36610078577fbd0faddf87043dd749c1b9d4dca8a12589b8cb5e2106832111ce23f219b14367345a60405161006e929190610163565b60405180910390a1005b005b34801561008657600080fd5b5061008f6100ec565b60405161009c919061018c565b60405180910390f35b6100bf60048036038101906100ba91906101d8565b6100f4565b005b3480156100cd57600080fd5b506100d6610141565b6040516100e3919061018c565b60405180910390f35b600047905090565b80600081905550600034111561013e577fbd0faddf87043dd749c1b9d4dca8a12589b8cb5e2106832111ce23f219b14367345a604051610135929190610163565b60405180910390a15b50565b60008054905090565b6000819050919050565b61015d8161014a565b82525050565b60006040820190506101786000830185610154565b6101856020830184610154565b9392505050565b60006020820190506101a16000830184610154565b92915050565b600080fd5b6101b58161014a565b81146101c057600080fd5b50565b6000813590506101d2816101ac565b92915050565b6000602082840312156101ee576101ed6101a7565b5b60006101fc848285016101c3565b9150509291505056fea2646970667358221220da53305458045eb79879c68310726bfbcf3d65d3f3728ee41f6caedb82fab90e64736f6c63430008130033",
  "linkReferences": {},
  "deployedLinkReferences": {}
}