{
  "_format": "hh-sol-artifact-1",
  "contractName": "Return",
  "sourceName": "contracts/Return.sol",
  "abi": [
    {
      "inputs": [],
      "name": "readReturn",
      "outputs": [],
      "stateMutability": "pure",
      "type": "function"
    },
    {
      "inputs": [],
      "name": "returnMultiple",
      "outputs": [
        {
          "internalType": "uint256",
          "name": "",
          "type": "uint256"
        },
        {
          "internalType": "bool",
          "name": "",
          "type": "bool"
        },
        {
          "internalType": "uint256[3]",
          "name": "",
          "type": "uint256[3]"
        }
      ],
      "stateMutability": "pure",
      "type": "function"
    },
    {
      "inputs": [],
      "name": "returnName",
      "outputs": [
        {
          "internalType": "uint256",
          "name": "_number",
          "type": "uint256"
        },
        {
          "internalType": "bool",
          "name": "_bool",
          "type": "bool"
        },
        {
          "internalType": "uint256[3]",
          "name": "_array",
          "type": "uint256[3]"
        }
      ],
      "stateMutability": "pure",
      "type": "function"
    },
    {
      "inputs": [],
      "name": "returnNamed2",
      "outputs": [
        {
          "internalType": "uint256",
          "name": "_number",
          "type": "uint256"
        },
        {
          "internalType": "bool",
          "name": "_bool",
          "type": "bool"
        },
        {
          "internalType": "uint256[3]",
          "name": "_array",
          "type": "uint256[3]"
        }
      ],
      "stateMutability": "pure",
      "type": "function"
    }
  ],
  "bytecode": "0x608060405234801561001057600080fd5b50610306806100206000396000f3fe608060405234801561001057600080fd5b506004361061004c5760003560e01c80635ea5cabe146100515780636f590330146100715780638552dc081461007b578063e61e40081461009b575b600080fd5b6100596100bb565b60405161006893929190610299565b60405180910390f35b6100796100f3565b005b61008361012a565b60405161009293929190610299565b60405180910390f35b6100a3610161565b6040516100b293929190610299565b60405180910390f35b6000806100c6610198565b60019250600191506040518060600160405280600181526020016002815260200160058152509050909192565b6000806000610100610198565b6101086100bb565b80935081955082965050505061011c6100bb565b909150508092505050505050565b600080610135610198565b600180604051806060016040528060018152602001600281526020016005815250925092509250909192565b60008061016c610198565b600180604051806060016040528060018152602001600281526020016005815250925092509250909192565b6040518060600160405280600390602082028036833780820191505090505090565b6000819050919050565b6101cd816101ba565b82525050565b60008115159050919050565b6101e8816101d3565b82525050565b600060039050919050565b600081905092915050565b6000819050919050565b610217816101ba565b82525050565b6000610229838361020e565b60208301905092915050565b6000602082019050919050565b61024b816101ee565b61025581846101f9565b925061026082610204565b8060005b83811015610291578151610278878261021d565b965061028383610235565b925050600181019050610264565b505050505050565b600060a0820190506102ae60008301866101c4565b6102bb60208301856101df565b6102c86040830184610242565b94935050505056fea26469706673582212205b0ac9b163a50d78374c2424309de6908e2ad06f23b836681f8dcd620462d60564736f6c63430008130033",
  "linkReferences": {},
  "deployedLinkReferences": {}
}