{
  "_format": "hh-sol-artifact-1",
  "contractName": "Baba",
  "sourceName": "contracts/Inheritance/Inheritance.sol",
  "abi": [
    {
      "anonymous": false,
      "inputs": [
        {
          "indexed": false,
          "internalType": "string",
          "name": "msg",
          "type": "string"
        }
      ],
      "name": "Log",
      "type": "event"
    },
    {
      "inputs": [],
      "name": "baba",
      "outputs": [],
      "stateMutability": "nonpayable",
      "type": "function"
    },
    {
      "inputs": [],
      "name": "hip",
      "outputs": [],
      "stateMutability": "nonpayable",
      "type": "function"
    },
    {
      "inputs": [],
      "name": "pop",
      "outputs": [],
      "stateMutability": "nonpayable",
      "type": "function"
    },
    {
      "inputs": [],
      "name": "yeye",
      "outputs": [],
      "stateMutability": "nonpayable",
      "type": "function"
    }
  ],
  "bytecode": "0x608060405234801561001057600080fd5b5061034c806100206000396000f3fe608060405234801561001057600080fd5b506004361061004c5760003560e01c80630ca21e9c14610051578063370ea1421461005b578063a4ece52c14610065578063fa030ef11461006f575b600080fd5b610059610079565b005b6100636100b0565b005b61006d6100e7565b005b61007761011e565b005b7fcf34ef537ac33ee1ac626ca1587a0a7e8e51561e5514f8cb36afa1c5102b3bab6040516100a6906101b2565b60405180910390a1565b7fcf34ef537ac33ee1ac626ca1587a0a7e8e51561e5514f8cb36afa1c5102b3bab6040516100dd9061021e565b60405180910390a1565b7fcf34ef537ac33ee1ac626ca1587a0a7e8e51561e5514f8cb36afa1c5102b3bab6040516101149061028a565b60405180910390a1565b7fcf34ef537ac33ee1ac626ca1587a0a7e8e51561e5514f8cb36afa1c5102b3bab60405161014b906102f6565b60405180910390a1565b600082825260208201905092915050565b7f5965796520796579650000000000000000000000000000000000000000000000600082015250565b600061019c600983610155565b91506101a782610166565b602082019050919050565b600060208201905081810360008301526101cb8161018f565b9050919050565b7f4261626120686970000000000000000000000000000000000000000000000000600082015250565b6000610208600883610155565b9150610213826101d2565b602082019050919050565b60006020820190508181036000830152610237816101fb565b9050919050565b7f4261626120706f70000000000000000000000000000000000000000000000000600082015250565b6000610274600883610155565b915061027f8261023e565b602082019050919050565b600060208201905081810360008301526102a381610267565b9050919050565b7f4261626120626162610000000000000000000000000000000000000000000000600082015250565b60006102e0600983610155565b91506102eb826102aa565b602082019050919050565b6000602082019050818103600083015261030f816102d3565b905091905056fea2646970667358221220a8314092969326c643642ae8a352d020f1cf093be1a66ee057e96a9d85070f5464736f6c63430008130033",
  "linkReferences": {},
  "deployedLinkReferences": {}
}