{
  "_format": "hh-sol-artifact-1",
  "contractName": "Erzi",
  "sourceName": "contracts/Inheritance/Inheritance.sol",
  "abi": [
    {
      "anonymous": false,
      "inputs": [
        {
          "indexed": false,
          "internalType": "string",
          "name": "msg",
          "type": "string"
        }
      ],
      "name": "Log",
      "type": "event"
    },
    {
      "inputs": [],
      "name": "baba",
      "outputs": [],
      "stateMutability": "nonpayable",
      "type": "function"
    },
    {
      "inputs": [],
      "name": "callParent",
      "outputs": [],
      "stateMutability": "nonpayable",
      "type": "function"
    },
    {
      "inputs": [],
      "name": "callParentSuper",
      "outputs": [],
      "stateMutability": "nonpayable",
      "type": "function"
    },
    {
      "inputs": [],
      "name": "hip",
      "outputs": [],
      "stateMutability": "nonpayable",
      "type": "function"
    },
    {
      "inputs": [],
      "name": "pop",
      "outputs": [],
      "stateMutability": "nonpayable",
      "type": "function"
    },
    {
      "inputs": [],
      "name": "yeye",
      "outputs": [],
      "stateMutability": "nonpayable",
      "type": "function"
    }
  ],
  "bytecode": "0x608060405234801561001057600080fd5b506104d0806100206000396000f3fe608060405234801561001057600080fd5b50600436106100625760003560e01c80630ca21e9c14610067578063370ea14214610071578063572e47ae1461007b578063a4ece52c14610085578063b92a50e01461008f578063fa030ef114610099575b600080fd5b61006f6100a3565b005b6100796100da565b005b610083610111565b005b61008d61011b565b005b610097610152565b005b6100a161015c565b005b7fcf34ef537ac33ee1ac626ca1587a0a7e8e51561e5514f8cb36afa1c5102b3bab6040516100d09061025e565b60405180910390a1565b7fcf34ef537ac33ee1ac626ca1587a0a7e8e51561e5514f8cb36afa1c5102b3bab604051610107906102ca565b60405180910390a1565b610119610193565b565b7fcf34ef537ac33ee1ac626ca1587a0a7e8e51561e5514f8cb36afa1c5102b3bab60405161014890610336565b60405180910390a1565b61015a6101ca565b565b7fcf34ef537ac33ee1ac626ca1587a0a7e8e51561e5514f8cb36afa1c5102b3bab604051610189906103a2565b60405180910390a1565b7fcf34ef537ac33ee1ac626ca1587a0a7e8e51561e5514f8cb36afa1c5102b3bab6040516101c09061040e565b60405180910390a1565b7fcf34ef537ac33ee1ac626ca1587a0a7e8e51561e5514f8cb36afa1c5102b3bab6040516101f79061047a565b60405180910390a1565b600082825260208201905092915050565b7f5965796520796579650000000000000000000000000000000000000000000000600082015250565b6000610248600983610201565b915061025382610212565b602082019050919050565b600060208201905081810360008301526102778161023b565b9050919050565b7f45727a6920686970000000000000000000000000000000000000000000000000600082015250565b60006102b4600883610201565b91506102bf8261027e565b602082019050919050565b600060208201905081810360008301526102e3816102a7565b9050919050565b7f45727a6920706f70000000000000000000000000000000000000000000000000600082015250565b6000610320600883610201565b915061032b826102ea565b602082019050919050565b6000602082019050818103600083015261034f81610313565b9050919050565b7f4261626120626162610000000000000000000000000000000000000000000000600082015250565b600061038c600983610201565b915061039782610356565b602082019050919050565b600060208201905081810360008301526103bb8161037f565b9050919050565b7f5965796520706f70000000000000000000000000000000000000000000000000600082015250565b60006103f8600883610201565b9150610403826103c2565b602082019050919050565b60006020820190508181036000830152610427816103eb565b9050919050565b7f4261626120706f70000000000000000000000000000000000000000000000000600082015250565b6000610464600883610201565b915061046f8261042e565b602082019050919050565b6000602082019050818103600083015261049381610457565b905091905056fea2646970667358221220d4dd665d6a72bd53a62804fc45ea94ae34c437c4885ed1656a5c61a8acb1536464736f6c63430008130033",
  "linkReferences": {},
  "deployedLinkReferences": {}
}