{
  "_format": "hh-sol-artifact-1",
  "contractName": "Yeye",
  "sourceName": "contracts/Inheritance/Inheritance.sol",
  "abi": [
    {
      "anonymous": false,
      "inputs": [
        {
          "indexed": false,
          "internalType": "string",
          "name": "msg",
          "type": "string"
        }
      ],
      "name": "Log",
      "type": "event"
    },
    {
      "inputs": [],
      "name": "hip",
      "outputs": [],
      "stateMutability": "nonpayable",
      "type": "function"
    },
    {
      "inputs": [],
      "name": "pop",
      "outputs": [],
      "stateMutability": "nonpayable",
      "type": "function"
    },
    {
      "inputs": [],
      "name": "yeye",
      "outputs": [],
      "stateMutability": "nonpayable",
      "type": "function"
    }
  ],
  "bytecode": "0x608060405234801561001057600080fd5b50610294806100206000396000f3fe608060405234801561001057600080fd5b50600436106100415760003560e01c80630ca21e9c14610046578063370ea14214610050578063a4ece52c1461005a575b600080fd5b61004e610064565b005b61005861009b565b005b6100626100d2565b005b7fcf34ef537ac33ee1ac626ca1587a0a7e8e51561e5514f8cb36afa1c5102b3bab60405161009190610166565b60405180910390a1565b7fcf34ef537ac33ee1ac626ca1587a0a7e8e51561e5514f8cb36afa1c5102b3bab6040516100c8906101d2565b60405180910390a1565b7fcf34ef537ac33ee1ac626ca1587a0a7e8e51561e5514f8cb36afa1c5102b3bab6040516100ff9061023e565b60405180910390a1565b600082825260208201905092915050565b7f5965796520796579650000000000000000000000000000000000000000000000600082015250565b6000610150600983610109565b915061015b8261011a565b602082019050919050565b6000602082019050818103600083015261017f81610143565b9050919050565b7f5965796520686970000000000000000000000000000000000000000000000000600082015250565b60006101bc600883610109565b91506101c782610186565b602082019050919050565b600060208201905081810360008301526101eb816101af565b9050919050565b7f5965796520706f70000000000000000000000000000000000000000000000000600082015250565b6000610228600883610109565b9150610233826101f2565b602082019050919050565b600060208201905081810360008301526102578161021b565b905091905056fea2646970667358221220f1d98517808cc57292e33a8d4516e02adfc9592ac474b2ddd2ef064693c81c5264736f6c63430008130033",
  "linkReferences": {},
  "deployedLinkReferences": {}
}