{
  "_format": "hh-sol-artifact-1",
  "contractName": "Identifier",
  "sourceName": "contracts/Inheritance/ModifierInheritance.sol",
  "abi": [
    {
      "inputs": [
        {
          "internalType": "uint256",
          "name": "_a",
          "type": "uint256"
        }
      ],
      "name": "getExactDividedBy2And3",
      "outputs": [
        {
          "internalType": "uint256",
          "name": "",
          "type": "uint256"
        },
        {
          "internalType": "uint256",
          "name": "",
          "type": "uint256"
        }
      ],
      "stateMutability": "pure",
      "type": "function"
    },
    {
      "inputs": [
        {
          "internalType": "uint256",
          "name": "_dividend",
          "type": "uint256"
        }
      ],
      "name": "getExactDividedBy2And3WithoutModifier",
      "outputs": [
        {
          "internalType": "uint256",
          "name": "",
          "type": "uint256"
        },
        {
          "internalType": "uint256",
          "name": "",
          "type": "uint256"
        }
      ],
      "stateMutability": "pure",
      "type": "function"
    }
  ],
  "bytecode": "0x608060405234801561001057600080fd5b50610357806100206000396000f3fe608060405234801561001057600080fd5b50600436106100365760003560e01c80634534a4381461003b578063d2406c781461006c575b600080fd5b61005560048036038101906100509190610188565b61009d565b6040516100639291906101c4565b60405180910390f35b61008660048036038101906100819190610188565b61011b565b6040516100949291906101c4565b60405180910390f35b6000808260006002826100b0919061021c565b1480156100c9575060006003826100c7919061021c565b145b610108576040517f08c379a00000000000000000000000000000000000000000000000000000000081526004016100ff906102d0565b60405180910390fd5b6101118461011b565b9250925050915091565b600080600060028461012d91906102f0565b9050600060038561013e91906102f0565b90508181935093505050915091565b600080fd5b6000819050919050565b61016581610152565b811461017057600080fd5b50565b6000813590506101828161015c565b92915050565b60006020828403121561019e5761019d61014d565b5b60006101ac84828501610173565b91505092915050565b6101be81610152565b82525050565b60006040820190506101d960008301856101b5565b6101e660208301846101b5565b9392505050565b7f4e487b7100000000000000000000000000000000000000000000000000000000600052601260045260246000fd5b600061022782610152565b915061023283610152565b925082610242576102416101ed565b5b828206905092915050565b600082825260208201905092915050565b7f42617365313a206e6f742065786163742064697669646564206279203220616e60008201527f6420330000000000000000000000000000000000000000000000000000000000602082015250565b60006102ba60238361024d565b91506102c58261025e565b604082019050919050565b600060208201905081810360008301526102e9816102ad565b9050919050565b60006102fb82610152565b915061030683610152565b925082610316576103156101ed565b5b82820490509291505056fea2646970667358221220198cbaf9a9afa219426b52fbaaf278f170c995a4e33b1659e645c569844d332864736f6c63430008130033",
  "linkReferences": {},
  "deployedLinkReferences": {}
}