{
  "_format": "hh-sol-artifact-1",
  "contractName": "SendETH",
  "sourceName": "contracts/SendETH.sol",
  "abi": [
    {
      "inputs": [],
      "stateMutability": "payable",
      "type": "constructor"
    },
    {
      "inputs": [],
      "name": "CallFailed",
      "type": "error"
    },
    {
      "inputs": [],
      "name": "SendFailed",
      "type": "error"
    },
    {
      "inputs": [
        {
          "internalType": "address payable",
          "name": "_to",
          "type": "address"
        },
        {
          "internalType": "uint256",
          "name": "amount",
          "type": "uint256"
        }
      ],
      "name": "callETH",
      "outputs": [],
      "stateMutability": "payable",
      "type": "function"
    },
    {
      "inputs": [
        {
          "internalType": "address payable",
          "name": "_to",
          "type": "address"
        },
        {
          "internalType": "uint256",
          "name": "amount",
          "type": "uint256"
        }
      ],
      "name": "sendETH",
      "outputs": [],
      "stateMutability": "payable",
      "type": "function"
    },
    {
      "inputs": [
        {
          "internalType": "address payable",
          "name": "_to",
          "type": "address"
        },
        {
          "internalType": "uint256",
          "name": "amount",
          "type": "uint256"
        }
      ],
      "name": "transferETH",
      "outputs": [],
      "stateMutability": "payable",
      "type": "function"
    },
    {
      "stateMutability": "payable",
      "type": "receive"
    }
  ],
  "bytecode": "0x6080604052610355806100136000396000f3fe6080604052600436106100385760003560e01c806364a197f3146100445780637b1a4909146100605780638419cf501461007c5761003f565b3661003f57005b600080fd5b61005e60048036038101906100599190610299565b610098565b005b61007a60048036038101906100759190610299565b61010d565b005b61009660048036038101906100919190610299565b610158565b005b60008273ffffffffffffffffffffffffffffffffffffffff166108fc839081150290604051600060405180830381858888f19350505050905080610108576040517f81063e5100000000000000000000000000000000000000000000000000000000815260040160405180910390fd5b505050565b8173ffffffffffffffffffffffffffffffffffffffff166108fc829081150290604051600060405180830381858888f19350505050158015610153573d6000803e3d6000fd5b505050565b60008273ffffffffffffffffffffffffffffffffffffffff168260405161017e9061030a565b60006040518083038185875af1925050503d80600081146101bb576040519150601f19603f3d011682016040523d82523d6000602084013e6101c0565b606091505b50509050806101fb576040517f3204506f00000000000000000000000000000000000000000000000000000000815260040160405180910390fd5b505050565b600080fd5b600073ffffffffffffffffffffffffffffffffffffffff82169050919050565b600061023082610205565b9050919050565b61024081610225565b811461024b57600080fd5b50565b60008135905061025d81610237565b92915050565b6000819050919050565b61027681610263565b811461028157600080fd5b50565b6000813590506102938161026d565b92915050565b600080604083850312156102b0576102af610200565b5b60006102be8582860161024e565b92505060206102cf85828601610284565b9150509250929050565b600081905092915050565b50565b60006102f46000836102d9565b91506102ff826102e4565b600082019050919050565b6000610315826102e7565b915081905091905056fea2646970667358221220c26bffe0156614888548770b91873d196f4792b7a7fa199ea76a966c0ab337c964736f6c63430008130033",
  "linkReferences": {},
  "deployedLinkReferences": {}
}