{
  "_format": "hh-sol-artifact-1",
  "contractName": "OtherContract",
  "sourceName": "contracts/CallContract.sol",
  "abi": [
    {
      "anonymous": false,
      "inputs": [
        {
          "indexed": false,
          "internalType": "uint256",
          "name": "amount",
          "type": "uint256"
        },
        {
          "indexed": false,
          "internalType": "uint256",
          "name": "gas",
          "type": "uint256"
        }
      ],
      "name": "Log",
      "type": "event"
    },
    {
      "inputs": [],
      "name": "getBalance",
      "outputs": [
        {
          "internalType": "uint256",
          "name": "",
          "type": "uint256"
        }
      ],
      "stateMutability": "view",
      "type": "function"
    },
    {
      "inputs": [],
      "name": "getX",
      "outputs": [
        {
          "internalType": "uint256",
          "name": "x",
          "type": "uint256"
        }
      ],
      "stateMutability": "view",
      "type": "function"
    },
    {
      "inputs": [
        {
          "internalType": "uint256",
          "name": "x",
          "type": "uint256"
        }
      ],
      "name": "setX",
      "outputs": [],
      "stateMutability": "payable",
      "type": "function"
    }
  ],
  "bytecode": "0x60806040526000805534801561001457600080fd5b506101fa806100246000396000f3fe6080604052600436106100345760003560e01c806312065fe0146100395780634018d9aa146100645780635197c7aa14610080575b600080fd5b34801561004557600080fd5b5061004e6100ab565b60405161005b9190610122565b60405180910390f35b61007e6004803603810190610079919061016e565b6100b3565b005b34801561008c57600080fd5b50610095610100565b6040516100a29190610122565b60405180910390f35b600047905090565b8060008190555060003411156100fd577fbd0faddf87043dd749c1b9d4dca8a12589b8cb5e2106832111ce23f219b14367345a6040516100f492919061019b565b60405180910390a15b50565b60008054905090565b6000819050919050565b61011c81610109565b82525050565b60006020820190506101376000830184610113565b92915050565b600080fd5b61014b81610109565b811461015657600080fd5b50565b60008135905061016881610142565b92915050565b6000602082840312156101845761018361013d565b5b600061019284828501610159565b91505092915050565b60006040820190506101b06000830185610113565b6101bd6020830184610113565b939250505056fea264697066735822122048d0af127711ae754c22f5e01f996be89bc601b5a397fbed4a43807aa5e18ff364736f6c63430008130033",
  "linkReferences": {},
  "deployedLinkReferences": {}
}