{
  "_format": "hh-sol-artifact-1",
  "contractName": "Mapping",
  "sourceName": "contracts/Mapping.sol",
  "abi": [
    {
      "inputs": [
        {
          "internalType": "uint256",
          "name": "",
          "type": "uint256"
        }
      ],
      "name": "idToAddress",
      "outputs": [
        {
          "internalType": "address",
          "name": "",
          "type": "address"
        }
      ],
      "stateMutability": "view",
      "type": "function"
    },
    {
      "inputs": [
        {
          "internalType": "address",
          "name": "",
          "type": "address"
        }
      ],
      "name": "swapPair",
      "outputs": [
        {
          "internalType": "address",
          "name": "",
          "type": "address"
        }
      ],
      "stateMutability": "view",
      "type": "function"
    },
    {
      "inputs": [
        {
          "internalType": "uint256",
          "name": "_Key",
          "type": "uint256"
        },
        {
          "internalType": "address",
          "name": "_Value",
          "type": "address"
        }
      ],
      "name": "writeMap",
      "outputs": [],
      "stateMutability": "nonpayable",
      "type": "function"
    }
  ],
  "bytecode": "0x608060405234801561001057600080fd5b50610310806100206000396000f3fe608060405234801561001057600080fd5b50600436106100415760003560e01c8063072721601461004657806314605b4a146100625780632a2d0c4714610092575b600080fd5b610060600480360381019061005b9190610216565b6100c2565b005b61007c60048036038101906100779190610256565b610117565b6040516100899190610292565b60405180910390f35b6100ac60048036038101906100a791906102ad565b61014a565b6040516100b99190610292565b60405180910390f35b8060008084815260200190815260200160002060006101000a81548173ffffffffffffffffffffffffffffffffffffffff021916908373ffffffffffffffffffffffffffffffffffffffff1602179055505050565b60016020528060005260406000206000915054906101000a900473ffffffffffffffffffffffffffffffffffffffff1681565b60006020528060005260406000206000915054906101000a900473ffffffffffffffffffffffffffffffffffffffff1681565b600080fd5b6000819050919050565b61019581610182565b81146101a057600080fd5b50565b6000813590506101b28161018c565b92915050565b600073ffffffffffffffffffffffffffffffffffffffff82169050919050565b60006101e3826101b8565b9050919050565b6101f3816101d8565b81146101fe57600080fd5b50565b600081359050610210816101ea565b92915050565b6000806040838503121561022d5761022c61017d565b5b600061023b858286016101a3565b925050602061024c85828601610201565b9150509250929050565b60006020828403121561026c5761026b61017d565b5b600061027a84828501610201565b91505092915050565b61028c816101d8565b82525050565b60006020820190506102a76000830184610283565b92915050565b6000602082840312156102c3576102c261017d565b5b60006102d1848285016101a3565b9150509291505056fea26469706673582212208daef9b47e1a6f91cad00d82e257fa5149613b5eb8d826ed3d0077bc7b770dc464736f6c63430008130033",
  "linkReferences": {},
  "deployedLinkReferences": {}
}