{
  "_format": "hh-sol-artifact-1",
  "contractName": "DataStorage",
  "sourceName": "contracts/DataStorage.sol",
  "abi": [
    {
      "inputs": [
        {
          "internalType": "uint256[]",
          "name": "_x",
          "type": "uint256[]"
        }
      ],
      "name": "fCalldata",
      "outputs": [
        {
          "internalType": "uint256[]",
          "name": "",
          "type": "uint256[]"
        }
      ],
      "stateMutability": "pure",
      "type": "function"
    },
    {
      "inputs": [
        {
          "internalType": "uint256[]",
          "name": "_x",
          "type": "uint256[]"
        }
      ],
      "name": "fMemory",
      "outputs": [
        {
          "internalType": "uint256[]",
          "name": "",
          "type": "uint256[]"
        }
      ],
      "stateMutability": "pure",
      "type": "function"
    },
    {
      "inputs": [],
      "name": "fMemory",
      "outputs": [],
      "stateMutability": "view",
      "type": "function"
    },
    {
      "inputs": [],
      "name": "fStorage",
      "outputs": [],
      "stateMutability": "nonpayable",
      "type": "function"
    },
    {
      "inputs": [
        {
          "internalType": "uint256",
          "name": "",
          "type": "uint256"
        }
      ],
      "name": "x",
      "outputs": [
        {
          "internalType": "uint256",
          "name": "",
          "type": "uint256"
        }
      ],
      "stateMutability": "view",
      "type": "function"
    }
  ],
  "bytecode": "0x60806040526040518060600160405280600160ff168152602001600260ff168152602001600360ff16815250600090600361003b92919061004e565b5034801561004857600080fd5b506100bd565b82805482825590600052602060002090810192821561008f579160200282015b8281111561008e578251829060ff1690559160200191906001019061006e565b5b50905061009c91906100a0565b5090565b5b808211156100b95760008160009055506001016100a1565b5090565b6106ea806100cc6000396000f3fe608060405234801561001057600080fd5b50600436106100575760003560e01c806316ef614f1461005c578063200289901461008c5780633f4263ef146100965780636a8d1e08146100c65780639b1a379c146100d0575b600080fd5b610076600480360381019061007191906103cf565b610101565b60405161008391906104d6565b60405180910390f35b61009461010b565b005b6100b060048036038101906100ab91906104f8565b6101cf565b6040516100bd9190610534565b60405180910390f35b6100ce6101f3565b005b6100ea60048036038101906100e591906105aa565b61021c565b6040516100f8929190610661565b60405180910390f35b6060819050919050565b60008080548060200260200160405190810160405280929190818152602001828054801561015857602002820191906000526020600020905b815481526020019060010190808311610144575b5050505050905060648160008151811061017557610174610685565b5b60200260200101818152505060c88160018151811061019757610196610685565b5b602002602001018181525050600081905061012c816002815181106101bf576101be610685565b5b6020026020010181815250505050565b600081815481106101df57600080fd5b906000526020600020016000915090505481565b600060648160008154811061020b5761020a610685565b5b906000526020600020018190555050565b3660008383915091509250929050565b6000604051905090565b600080fd5b600080fd5b600080fd5b6000601f19601f8301169050919050565b7f4e487b7100000000000000000000000000000000000000000000000000000000600052604160045260246000fd5b61028e82610245565b810181811067ffffffffffffffff821117156102ad576102ac610256565b5b80604052505050565b60006102c061022c565b90506102cc8282610285565b919050565b600067ffffffffffffffff8211156102ec576102eb610256565b5b602082029050602081019050919050565b600080fd5b6000819050919050565b61031581610302565b811461032057600080fd5b50565b6000813590506103328161030c565b92915050565b600061034b610346846102d1565b6102b6565b9050808382526020820190506020840283018581111561036e5761036d6102fd565b5b835b8181101561039757806103838882610323565b845260208401935050602081019050610370565b5050509392505050565b600082601f8301126103b6576103b5610240565b5b81356103c6848260208601610338565b91505092915050565b6000602082840312156103e5576103e4610236565b5b600082013567ffffffffffffffff8111156104035761040261023b565b5b61040f848285016103a1565b91505092915050565b600081519050919050565b600082825260208201905092915050565b6000819050602082019050919050565b61044d81610302565b82525050565b600061045f8383610444565b60208301905092915050565b6000602082019050919050565b600061048382610418565b61048d8185610423565b935061049883610434565b8060005b838110156104c95781516104b08882610453565b97506104bb8361046b565b92505060018101905061049c565b5085935050505092915050565b600060208201905081810360008301526104f08184610478565b905092915050565b60006020828403121561050e5761050d610236565b5b600061051c84828501610323565b91505092915050565b61052e81610302565b82525050565b60006020820190506105496000830184610525565b92915050565b600080fd5b60008083601f84011261056a57610569610240565b5b8235905067ffffffffffffffff8111156105875761058661054f565b5b6020830191508360208202830111156105a3576105a26102fd565b5b9250929050565b600080602083850312156105c1576105c0610236565b5b600083013567ffffffffffffffff8111156105df576105de61023b565b5b6105eb85828601610554565b92509250509250929050565b600080fd5b82818337505050565b60006106118385610423565b93507f07ffffffffffffffffffffffffffffffffffffffffffffffffffffffffffffff831115610644576106436105f7565b5b6020830292506106558385846105fc565b82840190509392505050565b6000602082019050818103600083015261067c818486610605565b90509392505050565b7f4e487b7100000000000000000000000000000000000000000000000000000000600052603260045260246000fdfea264697066735822122072810429e53573aea058435c30bccdb98f89334dc332a6f9f7b79411cab2f32a64736f6c63430008130033",
  "linkReferences": {},
  "deployedLinkReferences": {}
}