{
  "_format": "hh-sol-artifact-1",
  "contractName": "Variables",
  "sourceName": "contracts/DataStorage.sol",
  "abi": [
    {
      "inputs": [],
      "name": "bar",
      "outputs": [
        {
          "internalType": "uint256",
          "name": "",
          "type": "uint256"
        }
      ],
      "stateMutability": "pure",
      "type": "function"
    },
    {
      "inputs": [],
      "name": "daysUnit",
      "outputs": [
        {
          "internalType": "uint256",
          "name": "",
          "type": "uint256"
        }
      ],
      "stateMutability": "pure",
      "type": "function"
    },
    {
      "inputs": [],
      "name": "etherUnit",
      "outputs": [
        {
          "internalType": "uint256",
          "name": "",
          "type": "uint256"
        }
      ],
      "stateMutability": "pure",
      "type": "function"
    },
    {
      "inputs": [],
      "name": "foo",
      "outputs": [],
      "stateMutability": "nonpayable",
      "type": "function"
    },
    {
      "inputs": [],
      "name": "global",
      "outputs": [
        {
          "internalType": "address",
          "name": "",
          "type": "address"
        },
        {
          "internalType": "uint256",
          "name": "",
          "type": "uint256"
        },
        {
          "internalType": "bytes",
          "name": "",
          "type": "bytes"
        }
      ],
      "stateMutability": "view",
      "type": "function"
    },
    {
      "inputs": [],
      "name": "gweiUnit",
      "outputs": [
        {
          "internalType": "uint256",
          "name": "",
          "type": "uint256"
        }
      ],
      "stateMutability": "pure",
      "type": "function"
    },
    {
      "inputs": [],
      "name": "hoursUnit",
      "outputs": [
        {
          "internalType": "uint256",
          "name": "",
          "type": "uint256"
        }
      ],
      "stateMutability": "pure",
      "type": "function"
    },
    {
      "inputs": [],
      "name": "minutesUnit",
      "outputs": [
        {
          "internalType": "uint256",
          "name": "",
          "type": "uint256"
        }
      ],
      "stateMutability": "pure",
      "type": "function"
    },
    {
      "inputs": [],
      "name": "secondsUnit",
      "outputs": [
        {
          "internalType": "uint256",
          "name": "",
          "type": "uint256"
        }
      ],
      "stateMutability": "pure",
      "type": "function"
    },
    {
      "inputs": [],
      "name": "weeksUnit",
      "outputs": [
        {
          "internalType": "uint256",
          "name": "",
          "type": "uint256"
        }
      ],
      "stateMutability": "pure",
      "type": "function"
    },
    {
      "inputs": [],
      "name": "weiUnit",
      "outputs": [
        {
          "internalType": "uint256",
          "name": "",
          "type": "uint256"
        }
      ],
      "stateMutability": "pure",
      "type": "function"
    },
    {
      "inputs": [],
      "name": "x",
      "outputs": [
        {
          "internalType": "uint256",
          "name": "",
          "type": "uint256"
        }
      ],
      "stateMutability": "view",
      "type": "function"
    },
    {
      "inputs": [],
      "name": "y",
      "outputs": [
        {
          "internalType": "uint256",
          "name": "",
          "type": "uint256"
        }
      ],
      "stateMutability": "view",
      "type": "function"
    },
    {
      "inputs": [],
      "name": "z",
      "outputs": [
        {
          "internalType": "string",
          "name": "",
          "type": "string"
        }
      ],
      "stateMutability": "view",
      "type": "function"
    }
  ],
  "bytecode": "0x6080604052600160005534801561001557600080fd5b50610b04806100256000396000f3fe608060405234801561001057600080fd5b50600436106100ea5760003560e01c8063aec3d6401161008c578063c5d7802e11610066578063c5d7802e14610209578063cb9f122014610227578063f1e6d19814610245578063febb0f7e14610263576100ea565b8063aec3d640146101c3578063be44f864146101e1578063c2985578146101ff576100ea565b80632aca45f1116100c85780632aca45f114610149578063a05f990614610167578063a0d0d59e14610187578063a56dfe4a146101a5576100ea565b806309879682146100ef5780630c55699c1461010d578063121763491461012b575b600080fd5b6100f7610281565b604051610104919061058e565b60405180910390f35b61011561029b565b604051610122919061058e565b60405180910390f35b6101336102a1565b604051610140919061058e565b60405180910390f35b6101516102cc565b60405161015e919061058e565b60405180910390f35b61016f6102fd565b60405161017e9392919061067a565b60405180910390f35b61018f610366565b60405161019c919061058e565b60405180910390f35b6101ad610397565b6040516101ba919061058e565b60405180910390f35b6101cb61039d565b6040516101d8919061058e565b60405180910390f35b6101e96103d1565b6040516101f6919061058e565b60405180910390f35b6102076103ff565b005b610211610456565b60405161021e919061070d565b60405180910390f35b61022f6104e4565b60405161023c919061058e565b60405180910390f35b61024d610524565b60405161025a919061058e565b60405180910390f35b61026b61054f565b604051610278919061058e565b60405180910390f35b6000600180146102945761029361072f565b5b6001905090565b60005481565b6000600180146102b4576102b361072f565b5b600180146102c5576102c461072f565b5b6001905090565b600062093a8080146102e1576102e061072f565b5b62093a8080146102f4576102f361072f565b5b62093a80905090565b600080606060003390506000439050600080368080601f016020809104026020016040519081016040528093929190818152602001838380828437600081840152601f19601f820116905080830192505050505050509050828282955095509550505050909192565b600062015180801461037b5761037a61072f565b5b62015180801461038e5761038d61072f565b5b62015180905090565b60015481565b6000633b9aca0080146103b3576103b261072f565b5b633b9aca0080146103c7576103c661072f565b5b633b9aca00905090565b6000610e1080146103e5576103e461072f565b5b610e1080146103f7576103f661072f565b5b610e10905090565b600560008190555060026001819055506040518060400160405280600481526020017f3078414100000000000000000000000000000000000000000000000000000000815250600290816104539190610999565b50565b60028054610463906107bc565b80601f016020809104026020016040519081016040528092919081815260200182805461048f906107bc565b80156104dc5780601f106104b1576101008083540402835291602001916104dc565b820191906000526020600020905b8154815290600101906020018083116104bf57829003601f168201915b505050505081565b6000670de0b6b3a764000080146104fe576104fd61072f565b5b670de0b6b3a764000080146105165761051561072f565b5b670de0b6b3a7640000905090565b6000603c80146105375761053661072f565b5b603c80146105485761054761072f565b5b603c905090565b600080600190506000600290506000818361056a9190610a9a565b905080935050505090565b6000819050919050565b61058881610575565b82525050565b60006020820190506105a3600083018461057f565b92915050565b600073ffffffffffffffffffffffffffffffffffffffff82169050919050565b60006105d4826105a9565b9050919050565b6105e4816105c9565b82525050565b600081519050919050565b600082825260208201905092915050565b60005b83811015610624578082015181840152602081019050610609565b60008484015250505050565b6000601f19601f8301169050919050565b600061064c826105ea565b61065681856105f5565b9350610666818560208601610606565b61066f81610630565b840191505092915050565b600060608201905061068f60008301866105db565b61069c602083018561057f565b81810360408301526106ae8184610641565b9050949350505050565b600081519050919050565b600082825260208201905092915050565b60006106df826106b8565b6106e981856106c3565b93506106f9818560208601610606565b61070281610630565b840191505092915050565b6000602082019050818103600083015261072781846106d4565b905092915050565b7f4e487b7100000000000000000000000000000000000000000000000000000000600052600160045260246000fd5b7f4e487b7100000000000000000000000000000000000000000000000000000000600052604160045260246000fd5b7f4e487b7100000000000000000000000000000000000000000000000000000000600052602260045260246000fd5b600060028204905060018216806107d457607f821691505b6020821081036107e7576107e661078d565b5b50919050565b60008190508160005260206000209050919050565b60006020601f8301049050919050565b600082821b905092915050565b60006008830261084f7fffffffffffffffffffffffffffffffffffffffffffffffffffffffffffffffff82610812565b6108598683610812565b95508019841693508086168417925050509392505050565b6000819050919050565b600061089661089161088c84610575565b610871565b610575565b9050919050565b6000819050919050565b6108b08361087b565b6108c46108bc8261089d565b84845461081f565b825550505050565b600090565b6108d96108cc565b6108e48184846108a7565b505050565b5b81811015610908576108fd6000826108d1565b6001810190506108ea565b5050565b601f82111561094d5761091e816107ed565b61092784610802565b81016020851015610936578190505b61094a61094285610802565b8301826108e9565b50505b505050565b600082821c905092915050565b600061097060001984600802610952565b1980831691505092915050565b6000610989838361095f565b9150826002028217905092915050565b6109a2826106b8565b67ffffffffffffffff8111156109bb576109ba61075e565b5b6109c582546107bc565b6109d082828561090c565b600060209050601f831160018114610a0357600084156109f1578287015190505b6109fb858261097d565b865550610a63565b601f198416610a11866107ed565b60005b82811015610a3957848901518255600182019150602085019450602081019050610a14565b86831015610a565784890151610a52601f89168261095f565b8355505b6001600288020188555050505b505050505050565b7f4e487b7100000000000000000000000000000000000000000000000000000000600052601160045260246000fd5b6000610aa582610575565b9150610ab083610575565b9250828201905080821115610ac857610ac7610a6b565b5b9291505056fea26469706673582212204cd64fd47a0ca0dde8cffeb421f5c6ecada22220bc1d481d7417e9908b9f287c64736f6c63430008130033",
  "linkReferences": {},
  "deployedLinkReferences": {}
}