{
  "_format": "hh-sol-artifact-1",
  "contractName": "FunctionTypes",
  "sourceName": "contracts/FunctionTypes.sol",
  "abi": [
    {
      "inputs": [],
      "stateMutability": "payable",
      "type": "constructor"
    },
    {
      "inputs": [],
      "name": "add",
      "outputs": [],
      "stateMutability": "nonpayable",
      "type": "function"
    },
    {
      "inputs": [
        {
          "internalType": "uint256",
          "name": "_number",
          "type": "uint256"
        }
      ],
      "name": "addPure",
      "outputs": [
        {
          "internalType": "uint256",
          "name": "new_number",
          "type": "uint256"
        }
      ],
      "stateMutability": "pure",
      "type": "function"
    },
    {
      "inputs": [],
      "name": "addView",
      "outputs": [
        {
          "internalType": "uint256",
          "name": "new_number",
          "type": "uint256"
        }
      ],
      "stateMutability": "view",
      "type": "function"
    },
    {
      "inputs": [],
      "name": "minusCall",
      "outputs": [],
      "stateMutability": "nonpayable",
      "type": "function"
    },
    {
      "inputs": [],
      "name": "minusPayable",
      "outputs": [
        {
          "internalType": "uint256",
          "name": "balance",
          "type": "uint256"
        }
      ],
      "stateMutability": "payable",
      "type": "function"
    },
    {
      "inputs": [],
      "name": "number",
      "outputs": [
        {
          "internalType": "uint256",
          "name": "",
          "type": "uint256"
        }
      ],
      "stateMutability": "view",
      "type": "function"
    }
  ],
  "bytecode": "0x6080604052600560005561030a806100186000396000f3fe6080604052600436106100555760003560e01c8063303810a61461005a5780634f2be91f146100785780637032c4f21461008f57806380b4ea08146100cc5780638381f58a146100e3578063b262eb7f1461010e575b600080fd5b610062610139565b60405161006f91906101c4565b60405180910390f35b34801561008457600080fd5b5061008d610149565b005b34801561009b57600080fd5b506100b660048036038101906100b19190610210565b610164565b6040516100c391906101c4565b60405180910390f35b3480156100d857600080fd5b506100e161016e565b005b3480156100ef57600080fd5b506100f8610178565b60405161010591906101c4565b60405180910390f35b34801561011a57600080fd5b5061012361017e565b60405161013091906101c4565b60405180910390f35b6000610143610194565b47905090565b600160008082825461015b919061026c565b92505081905550565b6000819050919050565b610176610194565b565b60005481565b6000600160005461018f919061026c565b905090565b60016000546101a391906102a0565b600081905550565b6000819050919050565b6101be816101ab565b82525050565b60006020820190506101d960008301846101b5565b92915050565b600080fd5b6101ed816101ab565b81146101f857600080fd5b50565b60008135905061020a816101e4565b92915050565b600060208284031215610226576102256101df565b5b6000610234848285016101fb565b91505092915050565b7f4e487b7100000000000000000000000000000000000000000000000000000000600052601160045260246000fd5b6000610277826101ab565b9150610282836101ab565b925082820190508082111561029a5761029961023d565b5b92915050565b60006102ab826101ab565b91506102b6836101ab565b92508282039050818111156102ce576102cd61023d565b5b9291505056fea2646970667358221220cec2280d6ca12a6c08dd7d1b405e9be168513b5140b8126ebb6323e559e23db964736f6c63430008130033",
  "linkReferences": {},
  "deployedLinkReferences": {}
}