{
  "_format": "hh-sol-artifact-1",
  "contractName": "ArrayAndStruct",
  "sourceName": "contracts/ArrayAndStruct.sol",
  "abi": [
    {
      "inputs": [],
      "name": "arrayPush",
      "outputs": [
        {
          "internalType": "uint256[]",
          "name": "",
          "type": "uint256[]"
        }
      ],
      "stateMutability": "nonpayable",
      "type": "function"
    },
    {
      "inputs": [],
      "name": "initArray",
      "outputs": [
        {
          "internalType": "uint256[]",
          "name": "",
          "type": "uint256[]"
        }
      ],
      "stateMutability": "pure",
      "type": "function"
    }
  ],
  "bytecode": "0x6080604052600567ffffffffffffffff81111562000022576200002162000152565b5b604051908082528060200260200182016040528015620000515781602001602082028036833780820191505090505b506071908051906020019062000069929190620000e1565b50600967ffffffffffffffff81111562000088576200008762000152565b5b6040519080825280601f01601f191660200182016040528015620000bb5781602001600182028036833780820191505090505b5060729081620000cc9190620003cc565b50348015620000da57600080fd5b50620004b3565b82805482825590600052602060002090810192821562000120579160200282015b828111156200011f57825182559160200191906001019062000102565b5b5090506200012f919062000133565b5090565b5b808211156200014e57600081600090555060010162000134565b5090565b7f4e487b7100000000000000000000000000000000000000000000000000000000600052604160045260246000fd5b600081519050919050565b7f4e487b7100000000000000000000000000000000000000000000000000000000600052602260045260246000fd5b60006002820490506001821680620001d457607f821691505b602082108103620001ea57620001e96200018c565b5b50919050565b60008190508160005260206000209050919050565b60006020601f8301049050919050565b600082821b905092915050565b600060088302620002547fffffffffffffffffffffffffffffffffffffffffffffffffffffffffffffffff8262000215565b62000260868362000215565b95508019841693508086168417925050509392505050565b6000819050919050565b6000819050919050565b6000620002ad620002a7620002a18462000278565b62000282565b62000278565b9050919050565b6000819050919050565b620002c9836200028c565b620002e1620002d882620002b4565b84845462000222565b825550505050565b600090565b620002f8620002e9565b62000305818484620002be565b505050565b5b818110156200032d5762000321600082620002ee565b6001810190506200030b565b5050565b601f8211156200037c576200034681620001f0565b620003518462000205565b8101602085101562000361578190505b62000379620003708562000205565b8301826200030a565b50505b505050565b600082821c905092915050565b6000620003a16000198460080262000381565b1980831691505092915050565b6000620003bc83836200038e565b9150826002028217905092915050565b620003d78262000181565b67ffffffffffffffff811115620003f357620003f262000152565b5b620003ff8254620001bb565b6200040c82828562000331565b600060209050601f8311600181146200044457600084156200042f578287015190505b6200043b8582620003ae565b865550620004ab565b601f1984166200045486620001f0565b60005b828110156200047e5784890151825560018201915060208501945060208101905062000457565b868310156200049e57848901516200049a601f8916826200038e565b8355505b6001600288020188555050505b505050505050565b6103cc80620004c36000396000f3fe608060405234801561001057600080fd5b50600436106100365760003560e01c806347f6ac111461003b57806382a8181b14610059575b600080fd5b610043610077565b6040516100509190610316565b60405180910390f35b610061610127565b60405161006e9190610316565b60405180910390f35b606060006040518060400160405280600181526020016002815250905080606d9060026100a59291906101e4565b50606d60039080600181540180825580915050600190039060005260206000200160009091909190915055606d80548060200260200160405190810160405280929190818152602001828054801561011c57602002820191906000526020600020905b815481526020019060010190808311610108575b505050505091505090565b60606000600367ffffffffffffffff81111561014657610145610338565b5b6040519080825280602002602001820160405280156101745781602001602082028036833780820191505090505b50905060018160008151811061018d5761018c610367565b5b6020026020010181815250506003816001815181106101af576101ae610367565b5b6020026020010181815250506004816002815181106101d1576101d0610367565b5b6020026020010181815250508091505090565b828054828255906000526020600020908101928215610220579160200282015b8281111561021f578251825591602001919060010190610204565b5b50905061022d9190610231565b5090565b5b8082111561024a576000816000905550600101610232565b5090565b600081519050919050565b600082825260208201905092915050565b6000819050602082019050919050565b6000819050919050565b61028d8161027a565b82525050565b600061029f8383610284565b60208301905092915050565b6000602082019050919050565b60006102c38261024e565b6102cd8185610259565b93506102d88361026a565b8060005b838110156103095781516102f08882610293565b97506102fb836102ab565b9250506001810190506102dc565b5085935050505092915050565b6000602082019050818103600083015261033081846102b8565b905092915050565b7f4e487b7100000000000000000000000000000000000000000000000000000000600052604160045260246000fd5b7f4e487b7100000000000000000000000000000000000000000000000000000000600052603260045260246000fdfea264697066735822122051fdefb3f471d4c2f8ae39cc148f9bfc96992b6fb0c034d79cd3a10f41b4008d64736f6c63430008130033",
  "linkReferences": {},
  "deployedLinkReferences": {}
}