{
  "_format": "hh-sol-artifact-1",
  "contractName": "StructTypes",
  "sourceName": "contracts/ArrayAndStruct.sol",
  "abi": [
    {
      "inputs": [],
      "name": "initStudent1",
      "outputs": [],
      "stateMutability": "nonpayable",
      "type": "function"
    },
    {
      "inputs": [],
      "name": "initStudent2",
      "outputs": [],
      "stateMutability": "nonpayable",
      "type": "function"
    },
    {
      "inputs": [],
      "name": "initStudent3",
      "outputs": [],
      "stateMutability": "nonpayable",
      "type": "function"
    },
    {
      "inputs": [],
      "name": "initStudent4",
      "outputs": [],
      "stateMutability": "nonpayable",
      "type": "function"
    }
  ],
  "bytecode": "0x608060405234801561001057600080fd5b50610133806100206000396000f3fe6080604052348015600f57600080fd5b506004361060465760003560e01c80631a8d7dc314604b5780635a4236b11460535780639ebb8d2014605b578063a8b63e6f146063575b600080fd5b6051606b565b005b60596082565b005b606160b3565b005b606960e4565b005b600160008001819055506050600060010181905550565b604051806040016040528060038152602001605a815250600080820151816000015560208201518160010155905050565b604051806040016040528060048152602001603c815250600080820151816000015560208201518160010155905050565b6000600b8160000181905550606481600101819055505056fea2646970667358221220fda86225c169b3cf798b81231ff3740702a17e1cfe03f1201c741690f024ef3e64736f6c63430008130033",
  "linkReferences": {},
  "deployedLinkReferences": {}
}