{
  "_format": "hh-sol-artifact-1",
  "contractName": "Lock",
  "sourceName": "contracts/Lock.sol",
  "abi": [
    {
      "inputs": [
        {
          "internalType": "uint256",
          "name": "_unlockTime",
          "type": "uint256"
        }
      ],
      "stateMutability": "payable",
      "type": "constructor"
    },
    {
      "inputs": [],
      "name": "_address",
      "outputs": [
        {
          "internalType": "address",
          "name": "",
          "type": "address"
        }
      ],
      "stateMutability": "view",
      "type": "function"
    },
    {
      "inputs": [],
      "name": "_address2",
      "outputs": [
        {
          "internalType": "address",
          "name": "",
          "type": "address"
        }
      ],
      "stateMutability": "view",
      "type": "function"
    },
    {
      "inputs": [],
      "name": "owner",
      "outputs": [
        {
          "internalType": "address payable",
          "name": "",
          "type": "address"
        }
      ],
      "stateMutability": "view",
      "type": "function"
    },
    {
      "inputs": [],
      "name": "unlockTime",
      "outputs": [
        {
          "internalType": "uint256",
          "name": "",
          "type": "uint256"
        }
      ],
      "stateMutability": "view",
      "type": "function"
    }
  ],
  "bytecode": "0x6080604052735b38da6a701c568545dcfcb03fcb875f56beddc4600260006101000a81548173ffffffffffffffffffffffffffffffffffffffff021916908373ffffffffffffffffffffffffffffffffffffffff160217905550600260009054906101000a900473ffffffffffffffffffffffffffffffffffffffff16600360006101000a81548173ffffffffffffffffffffffffffffffffffffffff021916908373ffffffffffffffffffffffffffffffffffffffff1602179055506040516104ca3803806104ca83398181016040528101906100dd91906101a8565b80421061011f576040517f08c379a000000000000000000000000000000000000000000000000000000000815260040161011690610258565b60405180910390fd5b8060008190555033600160006101000a81548173ffffffffffffffffffffffffffffffffffffffff021916908373ffffffffffffffffffffffffffffffffffffffff16021790555050610278565b600080fd5b6000819050919050565b61018581610172565b811461019057600080fd5b50565b6000815190506101a28161017c565b92915050565b6000602082840312156101be576101bd61016d565b5b60006101cc84828501610193565b91505092915050565b600082825260208201905092915050565b7f556e6c6f636b2074696d652073686f756c6420626520696e207468652066757460008201527f7572650000000000000000000000000000000000000000000000000000000000602082015250565b60006102426023836101d5565b915061024d826101e6565b604082019050919050565b6000602082019050818103600083015261027181610235565b9050919050565b610243806102876000396000f3fe608060405234801561001057600080fd5b506004361061004c5760003560e01c806318bad21714610051578063251c1aa31461006f5780638da5cb5b1461008d578063de4f7b6e146100ab575b600080fd5b6100596100c9565b6040516100669190610182565b60405180910390f35b6100776100ef565b60405161008491906101b6565b60405180910390f35b6100956100f5565b6040516100a291906101f2565b60405180910390f35b6100b361011b565b6040516100c09190610182565b60405180910390f35b600260009054906101000a900473ffffffffffffffffffffffffffffffffffffffff1681565b60005481565b600160009054906101000a900473ffffffffffffffffffffffffffffffffffffffff1681565b600360009054906101000a900473ffffffffffffffffffffffffffffffffffffffff1681565b600073ffffffffffffffffffffffffffffffffffffffff82169050919050565b600061016c82610141565b9050919050565b61017c81610161565b82525050565b60006020820190506101976000830184610173565b92915050565b6000819050919050565b6101b08161019d565b82525050565b60006020820190506101cb60008301846101a7565b92915050565b60006101dc82610141565b9050919050565b6101ec816101d1565b82525050565b600060208201905061020760008301846101e3565b9291505056fea2646970667358221220d8fd90d95ca565a7acc6d93f47a13394e86f2de22c5dc9e5616d8e5427a3b1f364736f6c63430008130033",
  "linkReferences": {},
  "deployedLinkReferences": {}
}