{
  "_format": "hh-sol-artifact-1",
  "contractName": "Counter",
  "sourceName": "contracts/Counter.sol",
  "abi": [
    {
      "anonymous": false,
      "inputs": [
        {
          "indexed": false,
          "internalType": "uint256",
          "name": "newCount",
          "type": "uint256"
        }
      ],
      "name": "CountChanged",
      "type": "event"
    },
    {
      "inputs": [],
      "name": "current",
      "outputs": [
        {
          "internalType": "uint256",
          "name": "",
          "type": "uint256"
        }
      ],
      "stateMutability": "view",
      "type": "function"
    },
    {
      "inputs": [],
      "name": "decrement",
      "outputs": [],
      "stateMutability": "nonpayable",
      "type": "function"
    },
    {
      "inputs": [],
      "name": "increment",
      "outputs": [],
      "stateMutability": "nonpayable",
      "type": "function"
    }
  ],
  "bytecode": "0x608060405234801561001057600080fd5b50610311806100206000396000f3fe608060405234801561001057600080fd5b50600436106100415760003560e01c80632baeceb7146100465780639fa6a6e314610050578063d09de08a1461006e575b600080fd5b61004e610078565b005b610058610110565b6040516100659190610186565b60405180910390f35b610076610119565b005b60008054116100bc576040517f08c379a00000000000000000000000000000000000000000000000000000000081526004016100b390610224565b60405180910390fd5b60016000808282546100ce9190610273565b925050819055507f0ef4482aceb854636f33f9cd319f9e1cd6fe3aa2e60523f3583c287b893824456000546040516101069190610186565b60405180910390a1565b60008054905090565b600160008082825461012b91906102a7565b925050819055507f0ef4482aceb854636f33f9cd319f9e1cd6fe3aa2e60523f3583c287b893824456000546040516101639190610186565b60405180910390a1565b6000819050919050565b6101808161016d565b82525050565b600060208201905061019b6000830184610177565b92915050565b600082825260208201905092915050565b7f436f756e7465723a2063616e6e6f742064656372656d656e742062656c6f772060008201527f7a65726f00000000000000000000000000000000000000000000000000000000602082015250565b600061020e6024836101a1565b9150610219826101b2565b604082019050919050565b6000602082019050818103600083015261023d81610201565b9050919050565b7f4e487b7100000000000000000000000000000000000000000000000000000000600052601160045260246000fd5b600061027e8261016d565b91506102898361016d565b92508282039050818111156102a1576102a0610244565b5b92915050565b60006102b28261016d565b91506102bd8361016d565b92508282019050808211156102d5576102d4610244565b5b9291505056fea26469706673582212203208a73a15dd5418b3f0bfff454a6b89265c58d13bc1fce2f8d5deccaf4930a864736f6c63430008130033",
  "linkReferences": {},
  "deployedLinkReferences": {}
}